:020000040800F2
:1000000000280020B10B00084D0B0008550B00081C
:100010005D0B0008650B00086D0B00080000000078
:10002000000000000000000000000000750B000848
:10003000810B0008000000008D0B0008990B0008E0
:10004000F90B0008F90B0008F90B0008F90B000880
:10005000F90B0008F90B0008F90B0008F90B000870
:10006000F90B0008F90B0008F90B0008F90B000860
:10007000F90B0008F90B0008F90B0008F90B000850
:10008000F90B0008F90B0008F90B0008F90B000840
:10009000F90B0008F90B0008F90B0008F90B000830
:1000A000F90B0008F90B0008F90B0008F90B000820
:1000B000F90B0008F90B000800000000F90B00081C
:1000C000F90B00080000000000000000F90B000818
:1000D00000000000F90B0008F90B00080000000008
:1000E000F90B0008F90B0008F90B000800000000EC
:1000F0000000000000000000000000000000000000
:0C01000000000000000000005FF808F1A3
:10010C0010B5054C237833B9044B13B10448AFF345
:10011C0000800123237010BD3C0000200000000073
:10012C003C1A000808B5034B1BB103490348AFF355
:10013C00008008BD00000000400000203C1A0008B0
:10014C007BB972B90029BEBF00204FF0004106E018
:10015C0008BF00281CBF6FF000414FF0FF3000F0CB
:10016C009BB9ADF1080C6DE904CE002909DB002B1D
:10017C001ADB00F035F8DDF804E0DDE9022304B009
:10018C007047404261EB4101002B1BDB00F028F86B
:10019C00DDF804E0DDE9022304B0404261EB4101EB
:1001AC00524263EB43037047524263EB430300F04C
:1001BC0017F8DDF804E0DDE9022304B0404261EBFE
:1001CC0041017047524263EB430300F009F8DDF83C
:1001DC0004E0DDE9022304B0524263EB43037047B1
:1001EC002DE9F047089D0C46002B4ED194468C45CA
:1001FC008646B2FA82F262D94AB1C2F1200391402A
:10020C0020FA03F30CFA02FC194300FA02FE4FEA3F
:10021C001C47B1FBF7F407FB14111FFA8CF64FEADD
:10022C001E4343EA014304FB06F199420AD91CEB35
:10023C00030304F1FF3080F01081994240F20D81EC
:10024C00023C6344591AB1FBF7F007FB101100FB99
:10025C0006F61FFA8EF343EA01439E420AD91CEBC1
:10026C00030300F1FF3180F0FA809E4240F2F780E8
:10027C006344023800219B1B40EA04401DB1D3406B
:10028C000022C5E90032BDE8F0878B4205D90DB1DB
:10029C00C5E9000100210846F5E7B3FA83F100290E
:1002AC0046D1A34202D39042C0F0EE80861A64EB92
:1002BC0003030120002DE6D0C5E90063E3E7002A23
:1002CC0040F08F80A1EB0C0401214FEA1C481FFA6F
:1002DC008CF7B4FBF8F608FB164407FB06F04FEA64
:1002EC001E4343EA0443984208D91CEB030306F16E
:1002FC00FF3402D2984200F2CB8026461C1AB4FB83
:10030C00F8F008FB104400FB07F71FFA8EF343EAE2
:10031C0004439F4208D91CEB030300F1FF3402D2C3
:10032C009F4200F2AE802046DB1B40EA0640A5E768
:10033C00C1F120078B4022FA07FC4CEA030C24FA8B
:10034C0007F64FEA1C49B6FBF9F81FFA8CFE09FBBD
:10035C00186620FA07F38C4000FA01FA08FB0EF03D
:10036C001C43230C43EA0643984202FA01F20AD9D1
:10037C001CEB030308F1FF3680F0818098427ED994
:10038C00A8F1020863441E1AB6FBF9F309FB1366C5
:10039C0003FB0EFEA4B244EA0644A64508D91CEBA6
:1003AC00040403F1FF3066D2A64564D9023B6444D1
:1003BC0043EA0840A0FB0283A4EB0E049C42C64611
:1003CC001E4650D34DD055B1BAEB0E0364EB060468
:1003DC0004FA07F7CB401F43CC40C5E90074002159
:1003EC0051E70CFA02FCC2F12003D9404FEA1C4839
:1003FC0020FA03F300FA02FEB1FBF8F008FB10112F
:10040C0094401C431FFA8CF7230C43EA014300FB76
:10041C0007F1994208D91CEB030300F1FF362CD2EB
:10042C0099422AD9023863445B1AB3FBF8F108FBF2
:10043C001133A4B244EA034401FB07F3A34208D9E5
:10044C001CEB040401F1FF3613D2A34211D902397B
:10045C006444E41A41EA00413BE70446F2E60846EC
:10046C0008E7C245AFD2B8EB020E63EB0C060138BD
:10047C00A9E73146EDE703469AE73046D4E7B046A4
:10048C0081E7634402384FE706462346084611E7E6
:10049C00023E634432E700BF704700BF80B582B0B4
:1004AC0000AF0023FB710023BB71012210212648F1
:1004BC0000F09BFE01222021234800F096FE012231
:1004CC004021214800F091FE012280211E4800F0BD
:1004DC008CFE0023FB712FE0FB791C4A32F81330A1
:1004EC0000221946184800F080FE0023BB7114E06E
:1004FC00BB79174A32F813301946134800F05EFEE8
:10050C000346002B06D1FA79BB799B001344114AA0
:10051C00D35C15E0BB790133BB71BB79032BE7D9F5
:10052C00FB790A4A32F8133001221946064800F0CA
:10053C005CFEFB790133FB71FB79032BCCD9C8E74B
:10054C0018460837BD4680BD000801401000002049
:10055C00180000200000002080B584B000AF0346D6
:10056C00FB710023FB730023FB7312E0FB7B1E4A21
:10057C0032F81310FA79FB7B42FA03F3DBB203F087
:10058C000103DBB21A46194800F02FFEFB7B013346
:10059C00FB73FB7B072BE9D90A2000F08BFB0122B4
:1005AC004FF48041114800F020FE00224FF400511E
:1005BC000E4800F01AFE0A2000F07CFB01224FF4DA
:1005CC0080510A4800F011FE0A2000F073FB002253
:1005DC004FF48051054800F008FE0A2000F06AFB39
:1005EC0000BF1037BD4680BD20000020000C01402C
:1005FC0080B584B000AF0346FB710023FB7300236E
:10060C00FB7312E0FB7B1D4A32F81310FA79FB7B6B
:10061C0042FA03F3DBB203F00103DBB21A461848CB
:10062C0000F0E3FDFB7B0133FB73FB7B072BE9D96C
:10063C00012000F03FFB00224FF48041104800F0F5
:10064C00D4FD012000F036FB00224FF400510C4881
:10065C0000F0CBFD012000F02DFB01224FF4805166
:10066C00074800F0C2FD00224FF48051044800F00E
:10067C00BCFD00BF1037BD4680BD00BF2000002070
:10068C00000C014080B500AF282000F013FB38208F
:10069C00FFF7AEFF0F20FFF7ABFF012000F00AFBC6
:1006AC000120FFF7A5FF012000F004FB00BF80BD77
:1006BC002DE9B043ACB000AFC7E90001002387F8C7
:1006CC00AF3007F10803A0220021184601F084F98D
:1006DC00D7E90023134303D13020FFF73DFF36E069
:1006EC00D7E90023002B32DA2D20FFF735FFD7E9AD
:1006FC0000230021544261EB0305C7E9004526E0C5
:10070C0097F8AF30013387F8AF30D7E900014FF0DD
:10071C000A024FF00003FFF713FD12F1300843F10A
:10072C00000997F8AF1042464B46C900B031394426
:10073C00A839C1E90023D7E900014FF00A024FF0B4
:10074C000003FFF7FDFC02460B46C7E90023D7E97F
:10075C0000231343D4D110E097F8AF30DB00B03353
:10076C003B44A83BD3E90023D3B21846FFF7F4FE71
:10077C0097F8AF30013B87F8AF3097F8AF30002BCC
:10078C00EAD100BF00BFB037BD46BDE8B083000062
:10079C00B0B584B000AF00F02BFA00F0E7F800F031
:1007AC002BF90023FB600023BB6000237B6000233C
:1007BC003B700023FB700023BB7000237B70FFF7A2
:1007CC0061FFFFF76BFE03463B703B781846FFF763
:1007DC00C3FE3B783D2B31DC2A2BC0F2A9802A3B8F
:1007EC00132B00F2A58001A252F823F01709000880
:1007FC00170900083D090008170900083D09000801
:10080C00170900083D0900083D0900083D090008CA
:10081C003D0900083D0900083D0900083D09000894
:10082C003D0900083D0900083D0900083D09000884
:10083C003D0900083D0900084F080008782B69D0D5
:10084C0076E07B78002B29D1BB782A3B052B4FD83F
:10085C0001A252F823F000BF910800088708000895
:10086C00FD0800087D080008FD0800089D08000828
:10087C00FA68BB68D31A7B603AE0FA68BB68134429
:10088C007B6035E0FB68BA6802FB03F37B602FE00A
:10089C00FA68BB6892FBF3F37B6029E0BB782A3BD8
:1008AC00052B25D801A252F823F000BFE50800085B
:1008BC00DB080008FD080008D1080008FD08000846
:1008CC00F10800087A68BB68D31A7B6010E07A687C
:1008DC00BB6813447B600BE07B68BA6802FB03F3D4
:1008EC007B6005E07A68BB6892FBF3F37B6000BF2A
:1008FC007B68DA171C46154620462946FFF7D8FEBA
:10090C0001237B700023BB602BE00123FB703B7841
:10091C00BB7026E00023FB7000237B7000237B6000
:10092C000023FB600023BB600120FFF761FE18E091
:10093C00FB78002B0AD1FA6813469B0013445B002A
:10094C001A463B78303B1344FB6009E0BA68134607
:10095C009B0013445B001A463B78303B1344BB604E
:10096C0000BF642000F0A6F92BE700BF80B590B063
:10097C0000AF07F1180328220021184601F02CF8CB
:10098C003B1D00221A605A609A60DA601A610123DA
:10099C00BB614FF48033FB6100233B620123BB62DC
:1009AC0002237B634FF48033BB634FF4E013FB6390
:1009BC0007F11803184600F031FC0346002B01D058
:1009CC0000F086F80F237B600223BB600023FB60E2
:1009DC004FF480633B6100237B613B1D0221184671
:1009EC0000F09EFE0346002B01D000F071F800BF12
:1009FC004037BD4680BD000080B588B000AF07F120
:100A0C00100300221A605A609A60DA602D4B9B69C1
:100A1C002C4A43F0200393612A4B9B6903F020037B
:100A2C00FB60FB68274B9B69264A43F004039361E8
:100A3C00244B9B6903F00403BB60BB68214B9B698F
:100A4C00204A43F0080393611E4B9B6903F0080393
:100A5C007B607B680022F0211B4800F0C6FB002263
:100A6C0047F2F871194800F0C0FB0F233B610023DB
:100A7C007B610123BB6107F110031946124800F09A
:100A8C0021FAF0233B6101237B610023BB6102232C
:100A9C00FB6107F1100319460B4800F013FA47F2FB
:100AAC00F8733B6101237B610023BB610223FB6173
:100ABC0007F110031946054800F004FA00BF20376F
:100ACC00BD4680BD0010024000080140000C0140F2
:100ADC0080B400AF72B600BF00BFFDE780B485B034
:100AEC0000AF154B9B69144A43F001039361124B01
:100AFC009B6903F00103BB60BB680F4BDB690E4ABB
:100B0C0043F08053D3610C4BDB6903F080537B6063
:100B1C007B680A4B5B68FB60FB6823F0E063FB605F
:100B2C00FB6843F08063FB60044AFB68536000BFC2
:100B3C001437BD4680BC70470010024000000140D5
:100B4C0080B400AF00BFFDE780B400AF00BFFDE78D
:100B5C0080B400AF00BFFDE780B400AF00BFFDE77D
:100B6C0080B400AF00BFFDE780B400AF00BFBD464E
:100B7C0080BC704780B400AF00BFBD4680BC7047DE
:100B8C0080B400AF00BFBD4680BC704780B500AFDD
:100B9C0000F074F800BF80BD80B400AF00BFBD464C
:100BAC0080BC7047FFF7F8FF0B480C490C4A002338
:100BBC0002E0D458C4500433C4188C42F9D3094A07
:100BCC00094C002301E013600432A242FBD300F075
:100BDC000BFFFFF7DDFD7047000000203C000020FC
:100BEC00881A00083C0000205C000020FEE7000092
:100BFC0080B500AF084B1B68074A43F01003136025
:100C0C00032000F02BF90F2000F008F8FFF766FF27
:100C1C000023184680BD00BF0020024080B582B082
:100C2C0000AF7860124B1A68124B1B7819464FF4C0
:100C3C007A73B3FBF1F3B2FBF3F3184600F035F91A
:100C4C000346002B01D001230EE07B680F2B0AD842
:100C5C00002279684FF0FF3000F00BF9064A7B68F0
:100C6C001360002300E0012318460837BD4680BD01
:100C7C0030000020380000203400002080B400AF89
:100C8C00054B1B781A46054B1B681344034A13602B
:100C9C0000BFBD4680BC70473800002058000020C3
:100CAC0080B400AF024B1B681846BD4680BC704731
:100CBC005800002080B584B000AF7860FFF7F0FFDB
:100CCC00B8607B68FB60FB68B3F1FF3F05D00A4B53
:100CDC001B781A46FB681344FB6000BFFFF7E0FF6C
:100CEC000246BB68D31AFA689A42F7D800BF00BF15
:100CFC001037BD4680BD00BF3800002080B485B0E1
:100D0C0000AF78607B6803F00703FB600C4BDB687B
:100D1C00BB60BA684FF6FF031340BB60FB681A0256
:100D2C00BB68134343F0BF6343F40033BB60044A16
:100D3C00BB68D36000BF1437BD4680BC704700BF92
:100D4C0000ED00E080B400AF044BDB681B0A03F03D
:100D5C0007031846BD4680BC704700BF00ED00E09D
:100D6C0080B483B000AF03463960FB7197F907304C
:100D7C00002B0ADB3B68DAB20C4997F907301201F9
:100D8C00D2B20B4483F800230AE03B68DAB208497C
:100D9C00FB7903F00F03043B1201D2B20B441A7619
:100DAC0000BF0C37BD4680BC704700BF00E100E0BF
:100DBC0000ED00E080B489B000AFF860B9607A60F3
:100DCC00FB6803F00703FB61FB69C3F10703042B0A
:100DDC0028BF0423BB61FB690433062B02D9FB69D2
:100DEC00033B00E000237B614FF0FF32BB6902FA4A
:100DFC0003F3DA43BB681A407B699A404FF0FF312A
:100E0C007B6901FA03F3D9437B680B401343184603
:100E1C002437BD4680BC704780B582B000AF786087
:100E2C007B68013BB3F1807F01D301230FE00A4AB9
:100E3C007B68013B53600F214FF0FF30FFF790FFB1
:100E4C00054B00229A60044B07221A6000231846B7
:100E5C000837BD4680BD00BF10E000E080B582B011
:100E6C0000AF78607868FFF749FF00BF0837BD46D0
:100E7C0080BD80B586B000AF0346B9607A60FB7365
:100E8C0000237B61FFF75EFF78617A68B968786947
:100E9C00FFF790FF024697F90F3011461846FFF7FF
:100EAC005FFF00BF1837BD4680BD80B582B000AF74
:100EBC0078607868FFF7B0FF034618460837BD46E0
:100ECC0080BD000080B48BB000AF78603960002327
:100EDC007B6200233B6261E101227B6A02FA03F32D
:100EEC00FB613B681B68FA691340BB61BA69FB691B
:100EFC009A4240F050813B685B68974A93425ED0BF
:100F0C00954A934275D8954A934258D0934A934246
:100F1C006FD8934A934252D0914A934269D8914ADE
:100F2C0093424CD08F4A934263D88F4A934246D017
:100F3C008D4A93425DD8122B2AD8122B59D801A274
:100F4C0052F823F0CB0F0008A50F0008B70F0008CC
:100F5C00F90F0008FF0F0008FF0F0008FF0F000833
:100F6C00FF0F0008FF0F0008FF0F0008FF0F00081D
:100F7C00FF0F0008FF0F0008FF0F0008FF0F00080D
:100F8C00FF0F0008FF0F0008AD0F0008C10F00088D
:100F9C00764A934213D02CE03B68DB683B6229E035
:100FAC003B68DB6804333B6224E03B68DB68083356
:100FBC003B621FE03B68DB680C333B621AE03B682A
:100FCC009B68002B02D104233B6213E03B689B68B7
:100FDC00012B05D108233B627B68FA691A6109E091
:100FEC0008233B627B68FA695A6103E000233B6289
:100FFC0000E000BFBB69FF2B01D87B6801E07B6878
:10100C0004337B61BB69FF2B02D87B6A9B0002E037
:10101C007B6A083B9B003B617B691A680F213B692B
:10102C0001FA03F3DB431A40396A3B6901FA03F313
:10103C001A437B691A603B685B6803F08053002B92
:10104C0000F0A9804A4B9B69494A43F00103936124
:10105C00474B9B6903F00103BB60BB68454A7B6A45
:10106C009B08023352F82330FB607B6A03F00303C6
:10107C009B000F2202FA03F3DB43FA681340FB6078
:10108C007B683D4A93420DD07B683C4A934207D023
:10109C007B683B4A934201D1022304E0032302E024
:1010AC00012300E000237A6A02F0030292009340CD
:1010BC00FA681343FB602F497B6A9B080233FA687A
:1010CC0041F823203B685B6803F48013002B06D0A7
:1010DC002C4B9A682B49BB6913438B6006E0294B58
:1010EC009A68BB69DB43274913408B603B685B689C
:1010FC0003F40013002B06D0224BDA682149BB699C
:10110C001343CB6006E01F4BDA68BB69DB431D4918
:10111C001340CB603B685B6803F40033002B06D0B4
:10112C00184B5A681749BB6913434B6006E0154BC3
:10113C005A68BB69DB43134913404B603B685B68DF
:10114C0003F48033002B1FD00E4B1A680D49BB697A
:10115C0013430B601FE000BF000032100000311081
:10116C0000002210000021100000121000001110CD
:10117C00001002400000014000080140000C01403A
:10118C0000100140000401400B4B1A68BB69DB43A3
:10119C00094913400B607B6A01337B623B681A6818
:1011AC007B6A22FA03F3002B7FF496AE00BF00BFDC
:1011BC002C37BD4680BC70470004014080B485B01C
:1011CC0000AF78600B467B807B689A687B88134005
:1011DC00002B02D00123FB7301E00023FB73FB7B8C
:1011EC0018461437BD4680BC704780B483B000AF3E
:1011FC0078600B467B8013467B707B78002B03D08A
:10120C007A887B681A6103E07B881A047B681A6110
:10121C0000BF0C37BD4680BC7047000080B586B05F
:10122C0000AF78607B68002B01D1012372E27B68F0
:10123C001B6803F00103002B00F08780924B5B6866
:10124C0003F00C03042B0CD08F4B5B6803F00C03E6
:10125C00082B12D18C4B5B6803F48033B3F5803FC1
:10126C000BD1894B1B6803F40033002B6CD07B68CB
:10127C005B68002B68D101234CE27B685B68B3F59B
:10128C00803F06D1804B1B687F4A43F48033136048
:10129C002EE07B685B68002B0CD17B4B1B687A4A79
:1012AC0023F480331360784B1B68774A23F4802334
:1012BC0013601DE07B685B68B3F5A02F0CD1724BFB
:1012CC001B68714A43F4802313606F4B1B686E4A92
:1012DC0043F4803313600BE06B4B1B686A4A23F4B6
:1012EC0080331360684B1B68674A23F480231360B8
:1012FC007B685B68002B13D0FFF7D2FC386108E0E9
:10130C00FFF7CEFC02463B69D31A642B01D90323A9
:10131C0000E25D4B1B6803F40033002BF0D014E0AB
:10132C00FFF7BEFC386108E0FFF7BAFC02463B69E8
:10133C00D31A642B01D90323ECE1534B1B6803F440
:10134C000033002BF0D100E000BF7B681B6803F07A
:10135C000203002B63D04C4B5B6803F00C03002B97
:10136C000BD0494B5B6803F00C03082B1CD1464B8C
:10137C005B6803F48033002B16D1434B1B6803F0DE
:10138C000203002B05D07B681B69012B01D00123C4
:10139C00C0E13D4B1B6823F0F8027B685B69DB0006
:1013AC00394913430B603AE07B681B69002B20D052
:1013BC00364B01221A60FFF773FC386108E0FFF727
:1013CC006FFC02463B69D31A022B01D90323A1E11E
:1013DC002D4B1B6803F00203002BF0D02A4B1B682B
:1013EC0023F0F8027B685B69DB00274913430B6031
:1013FC0015E0264B00221A60FFF752FC386108E01A
:10140C00FFF74EFC02463B69D31A022B01D903238A
:10141C0080E11D4B1B6803F00203002BF0D17B68AD
:10142C001B6803F00803002B3AD07B689B69002BE8
:10143C0019D0174B01221A60FFF732FC386108E013
:10144C00FFF72EFC02463B69D31A022B01D903236A
:10145C0060E10D4B5B6A03F00203002BF0D001201E
:10146C0000F09CFA1CE00A4B00221A60FFF718FCF3
:10147C0038610FE0FFF714FC02463B69D31A022BCC
:10148C0008D9032346E100BF00100240000042428D
:10149C0080044242924B5B6A03F00203002BE9D1B9
:1014AC007B681B6803F00403002B00F0A68000236C
:1014BC00FB758B4BDB6903F08053002B0DD1884BF4
:1014CC00DB69874A43F08053D361854BDB6903F0BA
:1014DC008053BB60BB680123FB75824B1B6803F414
:1014EC008073002B18D17F4B1B687E4A43F48073AA
:1014FC001360FFF7D5FB386108E0FFF7D1FB02461C
:10150C003B69D31A642B01D9032303E1754B1B6888
:10151C0003F48073002BF0D07B68DB68012B06D1C1
:10152C006F4B1B6A6E4A43F0010313622DE07B681C
:10153C00DB68002B0CD16A4B1B6A694A23F0010350
:10154C001362674B1B6A664A23F0040313621CE0A8
:10155C007B68DB68052B0CD1614B1B6A604A43F03E
:10156C00040313625E4B1B6A5D4A43F00103136272
:10157C000BE05B4B1B6A5A4A23F001031362584B76
:10158C001B6A574A23F0040313627B68DB68002B49
:10159C0015D0FFF785FB38610AE0FFF781FB0246A7
:1015AC003B69D31A41F28832934201D90323B1E04B
:1015BC004B4B1B6A03F00203002BEED014E0FFF739
:1015CC006FFB38610AE0FFF76BFB02463B69D31AED
:1015DC0041F28832934201D903239BE0404B1B6AB2
:1015EC0003F00203002BEED1FB7D012B05D13C4B0C
:1015FC00DB693B4A23F08053D3617B68DB69002BAA
:10160C0000F08780364B5B6803F00C03082B61D02D
:10161C007B68DB69022B46D1334B00221A60FFF743
:10162C003FFB386108E0FFF73BFB02463B69D31AEE
:10163C00022B01D903236DE0294B1B6803F00073C7
:10164C00002BF0D17B681B6AB3F5803F08D1244B8B
:10165C005B6823F400327B689B68214913434B6021
:10166C001F4B5B6823F474127B68196A7B685B6A96
:10167C000B431B4913434B601B4B01221A60FFF7B2
:10168C000FFB386108E0FFF70BFB02463B69D31AEE
:10169C00022B01D903233DE0114B1B6803F00073AF
:1016AC00002BF0D035E0104B00221A60FFF7F8FA4F
:1016BC00386108E0FFF7F4FA02463B69D31A022BB3
:1016CC0001D9032326E0064B1B6803F00073002BA3
:1016DC00F0D11EE07B68DB69012B07D1012319E0F7
:1016EC000010024000700040600042420B4B5B68EF
:1016FC00FB60FB6803F480327B681B6A9A4206D15C
:10170C00FB6803F470127B685B6A9A4201D0012378
:10171C0000E0002318461837BD4680BD001002407B
:10172C0080B584B000AF786039607B68002B01D144
:10173C000123D0E06A4B1B6803F007033A689A4216
:10174C0010D9674B1B6823F0070265493B681343AC
:10175C000B60634B1B6803F007033A689A4201D095
:10176C000123B8E07B681B6803F00203002B20D038
:10177C007B681B6803F00403002B05D0594B5B6896
:10178C00584A43F4E06353607B681B6803F008031A
:10179C00002B05D0534B5B68524A43F460535360A3
:1017AC00504B5B6823F0F0027B689B684D491343F8
:1017BC004B607B681B6803F00103002B40D07B68F7
:1017CC005B68012B07D1474B1B6803F40033002BDC
:1017DC0015D101237FE07B685B68022B07D1414B5D
:1017EC001B6803F00073002B09D1012373E03D4B00
:1017FC001B6803F00203002B01D101236BE0394B72
:10180C005B6823F003027B685B68364913434B60CB
:10181C00FFF746FAF8600AE0FFF742FA0246FB6867
:10182C00D31A41F28832934201D9032353E02D4B52
:10183C005B6803F00C027B685B689B009A42EBD1FF
:10184C00274B1B6803F007033A689A4210D2244BCB
:10185C001B6823F0070222493B6813430B60204BA3
:10186C001B6803F007033A689A4201D0012332E067
:10187C007B681B6803F00403002B08D0194B5B68D2
:10188C0023F4E0627B68DB68164913434B607B688A
:10189C001B6803F00803002B09D0124B5B6823F480
:1018AC0060527B681B69DB000E4913434B6000F0F0
:1018BC0021F802460B4B5B681B0903F00F030A4926
:1018CC00CB5C22FA03F3094A1360094B1B681846D8
:1018DC00FFF7A4F9002318461037BD4680BD00BFA2
:1018EC000020024000100240541A00083000002072
:1018FC003400002080B487B000AF0023FB600023CD
:10190C00BB6000237B6100237B6000233B611E4B8B
:10191C005B68FB60FB6803F00C03042B02D0082B04
:10192C0003D027E0194B3B6127E0FB689B0C03F0CD
:10193C000F03174AD35C7B60FB6803F48033002BE6
:10194C0010D0114B5B685B0C03F00103114AD35CA4
:10195C00BB607B680D4A03FB02F2BB68B2FBF3F37E
:10196C007B6104E07B680C4A02FB03F37B617B69BF
:10197C003B6102E0054B3B6100BF3B6918461C37DD
:10198C00BD4680BC704700BF0010024000127A00B8
:10199C00641A0008741A000800093D0080B485B070
:1019AC0000AF78600A4B1B680A4AA2FB03235B0A50
:1019BC007A6802FB03F3FB6000BFFB685A1EFA60F7
:1019CC00002BF9D100BF00BF1437BD4680BC704757
:1019DC0030000020D34D621003460244934200D1E4
:1019EC00704703F8011BF9E770B500260C4D0D4C40
:1019FC00641BA410A64209D100F01AF800260A4D67
:101A0C000A4C641BA410A64205D170BD55F8043BCA
:101A1C0098470136EEE755F8043B98470136F2E754
:101A2C00801A0008801A0008801A0008841A00081E
:101A3C00F8B500BFF8BC08BC9E467047F8B500BFAF
:081A4C00F8BC08BC9E4670477F
:101A5400000000000000000001020304060708095A
:101A640002030405060708090A0B0C0D0E0F1010DB
:041A7400010200006B
:081A780074E7FF7F010000008C
:041A80003101000828
:041A84000D01000848
:101A88003738392F3435362A3132332D78303D2BDB
:101A9800100020004000800001000200040008003F
:101AA800080010002000400080000001000200042F
:0C1AB80000127A00100000000100000085
:0400000508000BB133
:00000001FF
