:100000000C942A000C943F000C943F000C943F0089
:100010000C943F000C943F000C943F000C943F0064
:100020000C943F000C943F000C943F000C943F0054
:100030000C943F000C943F000C943F000C943F0044
:100040000C943F000C943F000C943F000C943F0034
:100050000C943F0011241FBECFE5D4E0DEBFCDBF1E
:1000600011E0A0E6B0E0ECEFF6E402C005900D92DE
:10007000A837B107D9F70E94F2200C947C230C9486
:100080000000EF92FF920F931F937B018C0120E001
:1000900030E040E05FE40E94261088238CF0C80125
:1000A000B70120E030E040E05FE40E949E0E0E9435
:1000B00086109B01AC01205030404040504806C0A3
:1000C000C801B7010E9486109B01AC01B901CA01A9
:1000D0001F910F91FF90EF900895AEE5B0E0E3E738
:1000E000F0E00C944523A8E04E010894811C911C7B
:1000F000F4016A2E11926A94E9F729833A834B83BB
:100100005C836D837E838F839887CE010996FC0183
:100110001192AA95E9F7A986BA86CB86DC86ED8688
:10012000FE860F87188B29843A844B845C84ED8487
:10013000FE840F85188969807A808B809C806DA6EB
:100140007EA68FA698AA6D807E808F809884E11409
:10015000F1040105110509F0B3C3621473048404AA
:10016000950408F03DC100E0201600E0300601E0F3
:10017000400600E0500688F41FEF211631044104C8
:10018000510439F030F048E0E42EF12C012D112D0E
:1001900018C0EE24FF24870114C020E0221620E0BE
:1001A000320620E0420621E0520630F038E1E32E2C
:1001B000F12C012D112D05C020E1E22EF12C012D95
:1001C000112DD201C1010E2C04C0B695A7959795AB
:1001D00087950A94D2F788599F4FDC012C9180E2D1
:1001E00090E0A0E0B0E08E199F09A00BB10B7C015C
:1001F0008D01E21AF10801091109E114F104010568
:100200001105A1F10E2C04C0220C331C441C551CFA
:100210000A94D2F7A40193010E2C04C0220F331FBD
:10022000441F551F0A94D2F780E290E08E199F096F
:100230006DA47EA48FA498A804C096948794779404
:1002400067948A95D2F7622A732A842A952AADA4E4
:10025000BEA4CFA4D8A804C0AA0CBB1CCC1CDD1C17
:10026000EA94D2F7ADA6BEA6CFA6D8AA6201EE2424
:10027000FF24CDAADEAAEFAAF8AE92018101207078
:10028000307009AF1AAF2BAF3CAFC401B301A70167
:1002900096010E9423237B018C01C401B3012DA987
:1002A0003EA94FA958AD0E942323C901DA013C01A0
:1002B0004D01C401B30129AD3AAD4BAD5CAD0E9417
:1002C00004239B01AC018701FF24EE24ADA4BEA44E
:1002D000CFA4D8A8C601AA27BB2757016801A82A1E
:1002E000B92ACA2ADB2AA216B306C406D506E0F448
:1002F00008946108710881089108A20CB31CC41C01
:10030000D51CA214B304C404D50470F0A216B3061D
:10031000C406D50648F4089461087108810891085C
:10032000A20CB31CC41CD51CA21AB30AC40AD50A59
:10033000C601B5012DA93EA94FA958AD0E9423239E
:100340007B018C01C601B5012DA93EA94FA958AD6D
:100350000E942323C901DA015C016D01C601B501C8
:1003600029AD3AAD4BAD5CAD0E9404239B01AC01BD
:100370008701FF24EE248DA59EA5AFA5B8A9A07086
:10038000B070E82AF92A0A2B1B2BE216F3060407A1
:100390001507C0F40894A108B108C108D108E20CFF
:1003A000F31C041D151DE214F3040405150550F09B
:1003B000E216F3060407150728F40894A108B1080B
:1003C000C108D108D3019927882786017501E82A39
:1003D000F92A0A2B1B2BE9AAFAAA0BAB1CABCFC438
:1003E000211431044104510471F461E070E080E0B3
:1003F00090E020E030E040E050E00E942323C9017B
:10040000DA011C012D0100E0201600E0300601E0B9
:10041000400600E0500688F41FEF21163104410425
:10042000510431F028F048E050E060E070E017C07F
:1004300040E050E060E070E012C020E0221620E0D2
:10044000320620E0420621E0520628F048E150E062
:1004500060E070E004C040E150E060E070E0D20194
:10046000C101042E04C0B695A795979587950A9467
:10047000D2F788599F4FDC012C91E0E2EE2EF12C4F
:10048000012D112DD801C701841B950BA60BB70BAD
:10049000821B9109A109B1090097A105B10561F479
:1004A00064015301A218B308C408D50831E0632ED3
:1004B000712C812C912C1EC16F968FAF6F97082ED7
:1004C00004C0220C331C441C551C0A94D2F7EE2D98
:1004D000E81B640153010E2E04C0D694C794B79450
:1004E000A7940A94D2F7A40193016F960FAC6F976B
:1004F00004C0220F331F441F551F0A94D2F76DA466
:100500007EA48FA498A80E2E04C096948794779406
:1005100067940A94D2F784017301E22AF32A042B28
:10052000152BE9A6FAA60BA71CA73201882499244B
:10053000920181012070307021960CAF1DAF2EAF5B
:100540003FAF2197C601B501A40193010E94232367
:100550007B018C01C601B501A40193010E942323F4
:10056000C901DA0125968CAF9DAFAEAFBFAF25971D
:10057000BC01CD0121962CAD3DAD4EAD5FAD2197B7
:100580000E9404239B01AC018701FF24EE24A9A44F
:10059000BAA4CBA4DCA4C601AA27BB275C016D01C9
:1005A000AE28BF28C02AD12AA216B306C406D50693
:1005B00060F525966CAD7DAD8EAD9FAD25976150F4
:1005C00070408040904025966CAF7DAF8EAF9FAF5E
:1005D0002597A20CB31CC41CD51CA214B304C404DC
:1005E000D50498F0A216B306C406D50670F461507F
:1005F00070408040904025966CAF7DAF8EAF9FAF2E
:100600002597A20CB31CC41CD51CA21AB30AC40A99
:10061000D50AC601B501A40193010E9423237B01E1
:100620008C01C601B501A40193010E942323C901D5
:10063000DA013C014D01C401B30121962CAD3DAD61
:100640004EAD5FAD21970E9404239B01AC01870151
:10065000FF24EE2489A59AA5ABA5BCA5A070B07017
:1006600057016801A82AB92ACA2ADB2AA216B306AA
:10067000C406D506E0F40894610871088108910861
:10068000A20CB31CC41CD51CA214B304C404D5040E
:1006900070F0A216B306C406D50648F408946108A3
:1006A000710881089108A20CB31CC41CD51C8DA52F
:1006B0009EA5AFA5B8A96F960FAC6F9704C0880F21
:1006C000991FAA1FBB1F0A94D2F78DA79EA7AFA799
:1006D000B8ABA21AB30AC40AD50A2596ECACFDAC95
:1006E0000EAD1FAD2597D70199278827682A792A4B
:1006F0008A2A9B2A82012227332729960CAF1DAF15
:100700002EAF3FAF2997A2019101407050702D96F6
:100710002CAF3DAF4EAF5FAF2D97C601B501299607
:100720002CAD3DAD4EAD5FAD29970E9423237B01DB
:100730008C01C601B50129962CAD3DAD4EAD5FAD26
:1007400029970E942323C901DA0161968CAF9DAFDE
:10075000AEAFBFAF6197BC01CD012D962CAD3DADC5
:100760004EAD5FAD2D970E9404239B01AC01870124
:10077000FF24EE24ADA4BEA4CFA4D8A8C601AA2706
:10078000BB2757016801A82AB92ACA2ADB2AA21660
:10079000B306C406D50660F561966CAD7DAD8EAD31
:1007A0009FAD6197615070408040904061966CAF02
:1007B0007DAF8EAF9FAF6197A20CB31CC41CD51C3C
:1007C000A214B304C404D50498F0A216B306C40658
:1007D000D50670F4615070408040904061966CAFD7
:1007E0007DAF8EAF9FAF6197A20CB31CC41CD51C0C
:1007F000A21AB30AC40AD50AC601B50129962CADBE
:100800003DAD4EAD5FAD29970E9423237B018C0146
:10081000C601B50129962CAD3DAD4EAD5FAD299712
:100820000E942323C901DA015C016D01C601B501F3
:100830002D962CAD3DAD4EAD5FAD2D970E9404239E
:100840009B01AC018701FF24EE248DA59EA5AFA5D9
:10085000B8A9A070B070E82AF92A0A2B1B2BE2165F
:10086000F30604071507C0F40894A108B108C108ED
:10087000D108E20CF31C041D151DE214F304040559
:10088000150550F0E216F3060407150728F408943E
:10089000A108B108C108D1086196ECACFDAC0EAD61
:1008A0001FAD6197D7019927882796018501082BED
:1008B000192B2A2B3B2B09AB1AAB2BAB3CAB62C2DF
:1008C0006E147F048006910608F451C220E0E216FF
:1008D00020E0F20621E0020720E0120788F43FEF53
:1008E000E316F1040105110531F028F048E050E06D
:1008F00060E070E017C040E050E060E070E012C0DF
:1009000040E0E41640E0F40640E0040741E014074C
:1009100028F048E150E060E070E004C040E150E0C1
:1009200060E070E0D801C701042E04C0B695A79519
:10093000979587950A94D2F788599F4FDC012C919F
:1009400030E2A32EB12CC12CD12CD601C501841BC1
:10095000950BA60BB70B821B9109A109B109009752
:10096000A105B10589F4E614F7040805190508F492
:10097000F2C16DA47EA48FA498A8621473048404A9
:10098000950408F0E8C1F3C16E968FAF6E97082EFC
:1009900004C0EE0CFF1C001F111F0A94D2F76A2D31
:1009A000681BD201C101062E04C0B695A795979584
:1009B00087950A94D2F75C016D01AE28BF28C02A42
:1009C000D12AADA2BEA2CFA2D8A6720161016E96B5
:1009D0000FAC6E9704C0CC0CDD1CEE1CFF1C0A94FF
:1009E000D2F7C9A2DAA2EBA2FCA264015301062E3F
:1009F00004C0D694C794B794A7940A94D2F7D401AC
:100A0000C3016E960FAC6E9704C0880F991FAA1F82
:100A1000BB1F0A94D2F7EDA4FEA40FA518A904C029
:100A200016950795F794E7946A95D2F73701480130
:100A3000682A792A8A2A9B2A6D8E7E8E8F8E98A2AA
:100A4000EDA0FEA00FA118A53801882499249801D3
:100A500087012070307065960CAF1DAF2EAF3FAF91
:100A60006597C601B501A40193010E9423237B0170
:100A70008C01C601B501A40193010E942323C90181
:100A8000DA011C012D01C201B10165962CAD3DAD0D
:100A90004EAD5FAD65970E9404239B01AC018701B9
:100AA000FF24EE24AD8CBE8CCF8CD8A0C601AA2723
:100AB000BB2757016801A82AB92ACA2ADB2AA2162D
:100AC000B306C406D50600F508942108310841088C
:100AD0005108EDA0FEA00FA118A5AE0CBF1CC01EB2
:100AE000D11EAE14BF04C006D10670F0A216B30624
:100AF000C406D50648F40894210831084108510875
:100B0000AE0CBF1CC01ED11EA21AB30AC40AD50A5D
:100B1000C601B501A40193010E9423237B018C012E
:100B2000C601B501A40193010E942323C901DA0182
:100B30003C014D01C401B30165962CAD3DAD4EADF8
:100B40005FAD65970E9404239B01AC018701FF24E0
:100B5000EE248D8D9E8DAF8DB8A1A070B070570121
:100B60006801A82AB92ACA2ADB2AA216B306C40633
:100B7000D50600F5089461087108810891086DA1F7
:100B80007EA18FA198A5A60EB71EC81ED91EA616B7
:100B9000B706C806D90670F0A216B306C406D50675
:100BA00048F408946108710881089108A60EB71EE0
:100BB000C81ED91ED601C501821B930BA40BB50B11
:100BC000898F9A8FAB8FBC8FD101992788276401B9
:100BD0005301A82AB92ACA2ADB2AA9AABAAACBAAE7
:100BE000DCAA860175012FEF3FEF40E050E0E222E2
:100BF000F32204231523A601662777276D964CAFB1
:100C00005DAF6EAF7FAF6D97A9A0BAA0CBA0DCA0FF
:100C10006FEF7FEF80E090E0A622B722C822D922B2
:100C200089A19AA1ABA1BCA11D0144245524C801EE
:100C3000B701A60195010E94042369966CAF7DAFB0
:100C40008EAF9FAF6997C801B701A20191010E94C1
:100C500004233B014C016D966CAD7DAD8EAD9FAD17
:100C60006D97A60195010E9404237B018C016D966E
:100C70006CAD7DAD8EAD9FAD6D97A20191010E94CF
:100C800004235B016C01A8019701260D371D481D47
:100C9000591D69966CAC7DAC8EAC9FAC6997C40154
:100CA000AA27BB27280F391F4A1F5B1F2E153F0598
:100CB0004007510748F4E12CF12C61E0062F112D7B
:100CC000AE0CBF1CC01ED11ECA01AA27BB27BC0187
:100CD000CD016A0D7B1D8C1D9D1D698C7A8C8B8CC2
:100CE0009C8C661677068806990640F1661577058E
:100CF0008805990509F043C0D90199278827699685
:100D00002CAD3DAD4EAD5FAD699740705070820F18
:100D1000931FA41FB51F2DA53EA54FA558A96E96DC
:100D20000FAC6E9704C0220F331F441F551F0A9447
:100D3000D2F7281739074A075B0708F509A91AA946
:100D40002BA93CA9015010402040304009AB1AAB00
:100D50002BAB3CAB14C066247724430121E030E088
:100D600040E050E029AB3AAB4BAB5CAB0BC0662428
:100D70007724430119AA1AAA1BAA1CAA03C0662435
:100D800077244301FE01719688E0DF011D928A9568
:100D9000E9F7A9A8BAA8CBA8DCA8A98ABA8ACB8AFD
:100DA000DC8A6D8A7E8A8F8A988E29A93A894B8936
:100DB0005C89662D7E898F89988DC25ADF4FE2E16A
:100DC0000C946123ABE5B0E0E8EEF6E00C9445232B
:100DD000A8E04E010894811C911CF4016A2E119226
:100DE0006A94E9F729833A834B835C836D837E831E
:100DF0008F839887CE010996FC011192AA95E9F795
:100E0000A986BA86CB86DC86ED86FE860F87188B90
:100E100029843A844B845C84AD84BE84CF84D88892
:100E200029813A814B815C8169962FAF69976A96D7
:100E30003FAF6A976B964FAF6B976C965FAF6C97AF
:100E40006C966CAC7DAC8EAC9FAC6C9769AA7AAAA0
:100E50008BAA9CAA6D817E818F8198853B014C0174
:100E60006DAA7EAA8FAA98AEA114B104C104D104C0
:100E700009F004C3621473048404950408F000C1EB
:100E800000E0201600E0300601E0400600E05006D9
:100E900088F41FEF211631044104510439F030F079
:100EA00088E0E82EF12C012D112D18C0EE24FF242E
:100EB000870114C040E0241640E0340640E04406B8
:100EC00041E0540630F0B8E1EB2EF12C012D112D4C
:100ED00005C0A0E1EA2EF12C012D112DD201C10196
:100EE0000E2C04C0B695A795979587950A94D2F7CE
:100EF00088599F4FDC012C9180E290E0A0E0B0E0A7
:100F00008E199F09A00BB10B5C016D01A21AB108EB
:100F1000C108D108A9AEBAAECBAEDCAEA114B10403
:100F2000C104D10409F43FC069AD062E04C0220CEF
:100F3000331C441C551C0A94D2F7A4019301062EBD
:100F400004C0220F331F441F551F0A94D2F780E2BA
:100F500090E08A199B096C96CCACDDACEEACFFAC92
:100F60006C9704C0F694E794D794C7948A95D2F707
:100F700087017601E22AF32A042B152BEDAAFEAA9B
:100F80000FAB18AF6C968CAD9DADAEADBFAD6C9791
:100F900004C0880F991FAA1FBB1F6A95D2F789AB9F
:100FA0009AABABABBCAB320188249924B201A1014E
:100FB0006070707021964CAF5DAF6EAF7FAF2197C0
:100FC0006DA97EA98FA998ADA40193010E94232346
:100FD0007B018C016DA97EA98FA998ADA401930115
:100FE0000E942323CA01B90121962CAD3DAD4EAD1F
:100FF0005FAD21970E9404239B01AC018701FF2470
:10100000EE24A9A8BAA8CBA8DCA8C601AA27BB27AA
:1010100057016801A82AB92ACA2ADB2AA216B306F0
:10102000C406D50690F4A20CB31CC41CD51CA21493
:10103000B304C404D50448F0A216B306C406D5060A
:1010400020F4A20CB31CC41CD51CA21AB30AC40AF7
:10105000D50AC601B501A40193010E9423237B0197
:101060008C01C601B501A40193010E942323CA018A
:10107000B90121962CAD3DAD4EAD5FAD2197BAC102
:10108000211431044104510471F461E070E080E006
:1010900090E020E030E040E050E00E942323C901CE
:1010A000DA011C012D0100E0201600E0300601E00D
:1010B000400600E0500688F41FEF21163104410479
:1010C000510439F030F068E0E62EF12C012D112D9D
:1010D00018C0EE24FF24870114C040E0241640E02D
:1010E000340640E0440641E0540630F058E1E52E75
:1010F000F12C012D112D05C040E1E42EF12C012D24
:10110000112DD201C1010E2C04C0B695A79597955B
:1011100087950A94D2F788599F4FDC012C9130E2D1
:10112000A32EB12CC12CD12CD601C5018E199F093B
:10113000A00BB10B7C018D01E21AF1080109110924
:10114000E9AEFAAE0BAF1CAFE114F10401051105D5
:1011500039F464015301A218B308C408D508E2C0E9
:10116000F9AC6896FFAE68970F2C04C0220C331CB4
:10117000441C551C0A94D2F78A2D8F19640153011F
:10118000082E04C0D694C794B794A7940A94D2F7B3
:10119000A401930104C0220F331F441F551FFA946A
:1011A000D2F76C966CAC7DAC8EAC9FAC6C9704C0E7
:1011B00096948794779467948A95D2F78401730103
:1011C000E22AF32A042B152BEDA6FEA60FA718ABD7
:1011D000320188249924B201A101607070702596B3
:1011E0004CAF5DAF6EAF7FAF2597C601B501A401CF
:1011F00093010E9423237B018C01C601B501A40148
:1012000093010E942323CA01B90125962CAD3DAD5F
:101210004EAD5FAD25970E9404239B01AC01870171
:10122000FF24EE24ADA4BEA4CFA4D8A8C601AA274B
:10123000BB275C016D01AE28BF28C02AD12AA216A7
:10124000B306C406D50690F4A20CB31CC41CD51C6E
:10125000A214B304C404D50448F0A216B306C4060D
:10126000D50620F4A20CB31CC41CD51CA21AB30AC8
:10127000C40AD50AC601B501A40193010E94232323
:101280007B018C01C601B501A40193010E942323B7
:10129000CA01B90125962CAD3DAD4EAD5FAD259788
:1012A0000E9404239B01AC018701FF24EE248DA53D
:1012B0009EA5AFA5B8A9A070B07057016801A82A73
:1012C000B92ACA2ADB2AA216B306C406D50690F4A8
:1012D000A20CB31CC41CD51CA214B304C404D504B2
:1012E00048F0A216B306C406D50620F4A20CB31C1F
:1012F000C41CD51C6C96ECACFDAC0EAD1FAD6C9750
:1013000068960FAC689704C0EE0CFF1C001F111FFD
:101310000A94D2F7E9AAFAAA0BAB1CABA21AB30A39
:10132000C40AD50A320188249924B201A10160704F
:10133000707029964CAF5DAF6EAF7FAF2997C60135
:10134000B501A40193010E9423237B018C01C601F6
:10135000B501A40193010E942323CA01B901299672
:101360002CAD3DAD4EAD5FAD29970E9404239B018E
:10137000AC018701FF24EE24A9A8BAA8CBA8DCA859
:10138000C601AA27BB2757016801A82AB92ACA2A79
:10139000DB2AA216B306C406D50690F4A20CB31C31
:1013A000C41CD51CA214B304C404D50448F0A2166E
:1013B000B306C406D50620F4A20CB31CC41CD51C6D
:1013C000A21AB30AC40AD50AC601B501A401930141
:1013D0000E9423237B018C01C601B501A401930166
:1013E0000E942323CA01B90129962CAD3DAD4EAD13
:1013F0005FAD29970E9404239B01AC018701FF2464
:10140000EE2489A99AA9ABA9BCA9A070B070E82A5A
:10141000F92A0A2B1B2BE216F3060407150790F492
:10142000E20CF31C041D151DE214F304040515055C
:1014300048F0E216F3060407150720F4E20CF31C4B
:10144000041D151DE21AF30A040B150BD801C70180
:1014500009AC04C0B695A795979587950A94D2F7DD
:10146000898B9A8BAB8BBC8B1D8A1E8A1F8A188E28
:10147000282F3A894B895C896D890CC36A147B04D7
:101480008C049D0408F409C300E0A01600E0B00637
:1014900001E0C00600E0D00688F41FEFA116B104F9
:1014A000C104D10439F030F028E0E22EF12C012DF6
:1014B000112D18C0EE24FF24870114C040E0A416AB
:1014C00040E0B40640E0C40641E0D40630F098E1C4
:1014D000E92EF12C012D112D05C080E1E82EF12C13
:1014E000012D112DD601C5010E2C04C0B695A7956E
:1014F000979587950A94D2F788599F4FDC012C91D4
:1015000080E290E0A0E0B0E08E199F09A00BB10B43
:10151000821B9109A109B1090097A105B10509F044
:101520004FC0A614B704C804D90458F06C96ECACAC
:10153000FDAC0EAD1FAD6C97E214F3040405150568
:1015400068F16C96ECACFDAC0EAD1FAD6C97E2187B
:10155000F30804091509A40193012A193B094C0950
:101560005D09AA24BB2465016C966CAD7DAD8EAD82
:101570009FAD6C976E157F058007910728F4B1E049
:10158000AB2EB12CC12CD12CDA01C9018A199B09CF
:10159000AC09BD098DAB9EABAFABB8AFE98AFA8A97
:1015A0000B8B1C8B6DA87EA88FA898AC6D8A7E8A49
:1015B0008F8A988E2E2D3A894B895C896DA96AC2D3
:1015C00067968FAF6797A6019501082E04C0220F7A
:1015D000331F441F551F0A94D2F7A0E2AA2EA81A5F
:1015E0006696AFAE6697D201C10104C0B695A795C5
:1015F00097958795AA94D2F76C017D01C22AD32AC8
:10160000E42AF52AC9A6DAA6EBA6FCA68201710196
:1016100067960FAC679704C0EE0CFF1C001F111FEC
:101620000A94D2F7EDA2FEA20FA318A764015301FA
:1016300066960FAC669704C0D694C794B794A794E7
:101640000A94D2F7A401930167960FAC679704C080
:10165000220F331F441F551F0A94D2F76C968CAD8E
:101660009DADAEADBFAD6C9766960FAC669704C0EE
:10167000B695A795979587950A94D2F73C014D01A9
:10168000622A732A842A952A69A27AA28BA29CA232
:101690006C96ECACFDAC0EAD1FAD6C9767960FACC5
:1016A000679704C0EE0CFF1C001F111F0A94D2F7AD
:1016B000ED8EFE8E0F8F18A349A55AA56BA57CA5AC
:1016C0003B0188249924607070702D964CAF5DAFFB
:1016D0006EAF7FAF2D97C601B501A40193010E94A3
:1016E00023237B018C01C601B501A40193010E9453
:1016F0002323C901DA011C012D01C201B1012D967C
:101700002CAD3DAD4EAD5FAD2D970E9404239B01E6
:10171000AC018701FF24EE24A9A0BAA0CBA0DCA0D5
:10172000C601AA27BB2757016801A82AB92ACA2AD5
:10173000DB2AA216B306C406D50600F508942108D4
:10174000310841085108E9A4FAA40BA51CA5AE0C68
:10175000BF1CC01ED11EAE14BF04C006D10670F05F
:10176000A216B306C406D50648F408942108310829
:1017700041085108AE0CBF1CC01ED11EA21AB30AEC
:10178000C40AD50AC601B501A40193010E9423230E
:101790007B018C01C601B501A40193010E942323A2
:1017A000C901DA013C014D01C401B3012D962CADF4
:1017B0003DAD4EAD5FAD2D970E9404239B01AC0162
:1017C0008701FF24EE2489A19AA1ABA1BCA1A0703E
:1017D000B07057016801A82AB92ACA2ADB2AA216C2
:1017E000B306C406D50600F508946108710881089F
:1017F000910869A57AA58BA59CA5A60EB71EC81E43
:10180000D91EA616B706C806D90670F0A216B306EA
:10181000C406D50648F40894610871088108910847
:10182000A60EB71EC81ED91ED601C501821B930B7A
:10183000A40BB50B898F9A8FAB8FBC8FD1019927E1
:10184000882784017301E82AF92A0A2B1B2B4FEF02
:10185000A42E4FEFB42EC12CD12CAE20BF20C0221D
:10186000D1227801002711276DA07EA08FA098A417
:101870004FEF5FEF60E070E06422752286229722CE
:101880008DA19EA1AFA1B8A5BD0188279927659616
:101890006CAF7DAF8EAF9FAF6597C601B501A40158
:1018A00093010E94042361966CAF7DAF8EAF9FAF12
:1018B0006197C601B50165962CAD3DAD4EAD5FADEE
:1018C00065970E9404231B012C01C801B701A401E4
:1018D00093010E9404235B016C01C801B701659666
:1018E0002CAD3DAD4EAD5FAD65970E9404237B01ED
:1018F0008C01A6019501220D331D441D551D6196D5
:101900006CAC7DAC8EAC9FAC6197C401AA27BB27A1
:10191000280F391F4A1F5B1F2A153B054C055D0523
:1019200048F4812C912CE1E0AE2EB12CE80CF91C8E
:101930000A1D1B1DCA01AA27BB2757016801A80E53
:10194000B91ECA1EDB1EA9013327222761968CAD62
:101950009DADAEADBFAD6197A070B070280F391FBF
:101960004A1F5B1FE98CFA8C0B8D1C8DEA14FB045B
:101970000C051D0570F0AE14BF04C006D10669F554
:101980006D8D7E8D8F8D98A16217730784079507E3
:1019900020F5DA01C9016DA07EA08FA098A4861958
:1019A0009709A809B909E9A4FAA40BA51CA5AE18C2
:1019B000BF08C00AD10AEE24FF248701281739077F
:1019C0004A075B0728F421E0E22EF12C012D112DAE
:1019D000AE18BF08C00AD10A02C0DA01C9016D8C75
:1019E0007E8C8F8C98A0681A790A8A0A9B0A498D86
:1019F0005A8D6B8D7C8D4A195B096C097D095A01E2
:101A00006B012224332421016D8D7E8D8F8D98A151
:101A1000661577058805990528F481E0282E312C74
:101A2000412C512C86017501E218F30804091509AF
:101A3000A801970166960FAC669704C0220F331F6A
:101A4000441F551F0A94D2F7D401C30167960FAC07
:101A5000679704C0B695A795979587950A94D2F78E
:101A6000282B392B4A2B5B2B298B3A8B4B8B5C8B8E
:101A700067960FAC679704C016950795F794E7949F
:101A80000A94D2F7ED8AFE8A0F8B188F3A894B8918
:101A90005C896E2D7E898F89988DC55ADF4FE2E172
:101AA0000C946123A0E0B0E0E8E5FDE00C94452350
:101AB000DC012B01FA019C91923008F439C1EB0151
:101AC0008881823008F433C1943069F4843009F09D
:101AD0002FC111969C9111978981981709F428C1FB
:101AE000A0E6B0E025C1843009F421C18230A9F418
:101AF000923009F01DC19A01AD0188E0EA01099018
:101B0000AE01E90109929E018150C1F7E20189818C
:101B100011969C918923818308C1923009F407C1F1
:101B200012962D903C901397EB018A819B8114961D
:101B3000AD90BD90CD90DC901797EC80FD800E812C
:101B40001F819101281B390BB90137FF04C066279B
:101B50007727621B730B603271050CF061C012169F
:101B600013066CF537014801062E04C0969487943D
:101B7000779467940A94D2F721E030E040E050E097
:101B800004C0220F331F441F551F6A95D2F72150FE
:101B90003040404050402E213F2140235123211509
:101BA00031054105510521F021E030E040E050E0F1
:101BB00079018A01E628F728082919293CC0232B36
:101BC000D1F1260E371E35014601062E04C096942B
:101BD0008794779467940A94D2F721E030E040E04C
:101BE00050E004C0220F331F441F551F6A95D2F7DF
:101BF00021503040404050402A213B214C215D2162
:101C0000211531054105510521F021E030E040E08A
:101C100050E059016A01A628B728C828D9280BC066
:101C2000821593052CF01C01AA24BB24650103C076
:101C3000EE24FF24870111969C91D20111968C917C
:101C4000981709F445C0992339F0A80197012A197A
:101C50003B094C095D0906C0A60195012E193F09F3
:101C6000400B510B57FD08C011823382228224831E
:101C70003583468357831DC081E08183338222826E
:101C800088279927DC01821B930BA40BB50B848357
:101C90009583A683B7830DC0220F331F441F551FA2
:101CA000248335834683578382819381019793836D
:101CB00082832481358146815781DA01C9010197E8
:101CC000A109B1098F5F9F4FAF4FBF4328F30BC0EE
:101CD000918333822282EA0CFB1C0C1D1D1DE482C1
:101CE000F5820683178383E08083248135814681D2
:101CF000578157FF1AC0C901AA2797FDA095BA2F8F
:101D000081709070A070B070569547953795279563
:101D1000822B932BA42BB52B84839583A683B78327
:101D200082819381019693838283DF0101C0D20176
:101D3000CD01CDB7DEB7E2E10C946123A0E2B0E0C3
:101D4000E4EAFEE00C94512369837A838B839C83BD
:101D50002D833E834F835887E9E0EE2EF12CEC0E65
:101D6000FD1ECE010196B7010E94AF118E010F5EDC
:101D70001F4FCE010596B8010E94AF118A8991E0EC
:101D800089278A8BC701B801AE01475E5F4F0E9469
:101D9000520D0E94DA10A096E6E00C946D23A0E2AA
:101DA000B0E0E5EDFEE00C94512369837A838B83E8
:101DB0009C832D833E834F835887F9E0EF2EF12CCF
:101DC000EC0EFD1ECE010196B7010E94AF118E01EF
:101DD0000F5E1F4FCE010596B8010E94AF11C701DB
:101DE000B801AE01475E5F4F0E94520D0E94DA10AB
:101DF000A096E6E00C946D23A0E2B0E0E2E0FFE004
:101E00000C94452369837A838B839C832D833E8343
:101E10004F835887CE010196BE01675F7F4F0E94B6
:101E2000AF11CE010596BE016F5E7F4F0E94AF11CC
:101E30009985923088F089898230C8F0943019F4FD
:101E4000823051F404C0843029F4923081F480E669
:101E500090E0C6C0923049F420E09A858A899813B0
:101E600021E02A87CE010996BBC0823049F420E0E8
:101E70009A858A89981321E02A8BCE014196B0C0B9
:101E80002D843E844F8458886D887E888F88988CF6
:101E9000EE24FF248701AA24BB24650140E050E022
:101EA00060E070E0E0E0F0E0C10181709070892BAB
:101EB000E9F0E60CF71C081D191D9A01AB012A0D6B
:101EC0003B1D4C1D5D1D80E090E0A0E0B0E0E614FD
:101ED000F7040805190520F481E090E0A0E0B0E0E7
:101EE000BA01A901480F591F6A1F7B1FAA0CBB1C0E
:101EF000CC1CDD1C97FE08C081E090E0A0E0B0E0C3
:101F0000A82AB92ACA2ADB2A3196E032F10549F01B
:101F1000660C771C881C991C569447943794279418
:101F2000C3CFFA85EA892B893C898B859C85280F4C
:101F3000391F2E5F3F4F17C0CA0181709070892BE7
:101F400061F016950795F794E79480E090E0A0E0A3
:101F5000B0E8E82AF92A0A2B1B2B76956795579546
:101F600047952F5F3F4F77FDE7CF0CC0440F551FBC
:101F7000661F771F17FD4160EE0CFF1C001F111F2D
:101F800021503040403090E0590790E0690790E4DC
:101F9000790760F32B8F3C8FDB01CA018F7790703C
:101FA000A070B07080349105A105B10561F447FDC2
:101FB0000AC0E114F1040105110529F0405C5F4FEE
:101FC0006F4F7F4F40781A8EFE1711F081E08A8F95
:101FD0004D8F5E8F6F8F78A383E0898FCE014996F6
:101FE0000E94DA10A096E2E10C946123A8E1B0E02F
:101FF000ECEFFFE00C94512369837A838B839C83FD
:102000002D833E834F83588789E0E82EF12CEC0E18
:10201000FD1ECE010196B7010E94AF118E010F5E29
:102020001F4FCE010596B8010E94AF1189858230FD
:1020300040F08989823028F0C701B8010E94271238
:1020400001C08FEF6896E6E00C946D23A8E1B0E044
:10205000ECE2F0E10C94512369837A838B839C83B7
:102060002D833E834F83588789E0E82EF12CEC0EB8
:10207000FD1ECE010196B7010E94AF118E010F5EC9
:102080001F4FCE010596B8010E94AF11898582309D
:1020900040F08989823028F0C701B8010E942712D8
:1020A00001C08FEF6896E6E00C946D23A8E1B0E0E4
:1020B000ECE5F0E10C94512369837A838B839C8354
:1020C0002D833E834F83588789E0E82EF12CEC0E58
:1020D000FD1ECE010196B7010E94AF118E010F5E69
:1020E0001F4FCE010596B8010E94AF11898582303D
:1020F00040F08989823028F0C701B8010E94271278
:1021000001C081E06896E6E00C946D23ACE0B0E09D
:10211000ECE8F0E10C94552369837A838B839C83EC
:10212000CE010196BE016B5F7F4F0E94AF118D8182
:10213000823061F1823050F1843021F48E81882325
:1021400051F12EC02F81388537FD20C06E812F318F
:1021500031051CF06623F9F023C08EE190E0821B6C
:10216000930B29853A854B855C8504C05695479528
:10217000379527958A95D2F76623B1F0509540950B
:10218000309521953F4F4F4F5F4F0EC020E030E01C
:1021900040E050E009C02FEF3FEF4FEF5FE704C092
:1021A00020E030E040E050E8B901CA012C96E2E0BE
:1021B0000C947123DF92EF92FF920F931F93FC0117
:1021C000E480F58006811781D1808081823048F4D7
:1021D00080E090E0A0E1B0E0E82AF92A0A2B1B2B6E
:1021E000A5C0843009F49FC0823021F4EE24FF247E
:1021F000870105C0E114F1040105110519F4E0E0BF
:10220000F0E096C0628173819FEF623879070CF02D
:102210005BC022E83FEF261B370B2A3131052CF03B
:1022200020E030E040E050E02AC0B801A701022ED3
:1022300004C076956795579547950A94D2F781E043
:1022400090E0A0E0B0E004C0880F991FAA1FBB1F58
:102250002A95D2F70197A109B1098E219F21A023C8
:10226000B1230097A105B10521F081E090E0A0E045
:10227000B0E09A01AB01282B392B4A2B5B2BDA01FA
:10228000C9018F779070A070B07080349105A1055E
:10229000B10539F427FF09C0205C3F4F4F4F5F4F16
:1022A00004C0215C3F4F4F4F5F4FE0E0F0E0203033
:1022B000A0E03A07A0E04A07A0E45A0710F0E1E0E6
:1022C000F0E079018A0127C06038710564F5FB01EF
:1022D000E158FF4FD801C7018F779070A070B070A0
:1022E00080349105A105B10539F4E7FE0DC080E405
:1022F00090E0A0E0B0E004C08FE390E0A0E0B0E0A8
:10230000E80EF91E0A1F1B1F17FF05C0169507953B
:10231000F794E794319687E016950795F794E7943C
:102320008A95D1F705C0EE24FF248701EFEFF0E096
:102330006E2F679566276795902F9F77D794DD243A
:10234000D7948E2F8695492F462B582F5D29B7019C
:10235000CA011F910F91FF90EF90DF900895FC014B
:10236000DB01408151812281622F6F7770E0221F53
:102370002227221F9381892F880F822B282F30E05C
:10238000991F9927991F11969C9311972115310533
:10239000A9F5411551056105710511F482E037C0B9
:1023A00082E89FEF13969C938E9312979A01AB014C
:1023B00067E0220F331F441F551F6A95D1F783E052
:1023C0008C930DC0220F331F441F551F12968D9101
:1023D0009C911397019713969C938E93129720309C
:1023E00080E0380780E0480780E4580758F31496E7
:1023F0002D933D934D935C93179708952F3F31058F
:1024000079F4411551056105710519F484E08C9347
:10241000089564FF03C081E08C9312C01C9210C029
:102420002F57304013963C932E93129783E08C9352
:1024300087E0440F551F661F771F8A95D1F7706498
:1024400014964D935D936D937C93179708951F9306
:10245000DC01FB019C91923008F447C080818230FE
:1024600008F443C0943051F411961C91843099F5CE
:102470008181682F70E0611B71093FC0843021F0B9
:10248000923031F48230B9F18181882389F12DC0F5
:1024900011961C9111978230F1F081811817D9F4AF
:1024A00012962D913C911397828193818217930705
:1024B00094F028173907BCF014968D919D910D90DA
:1024C000BC91A02D24813581468157812817390779
:1024D0004A075B0718F4112341F00AC082179307DB
:1024E000A407B50740F4112319F061E070E005C0BE
:1024F0006FEF7FEF02C060E070E0CB011F910895A5
:10250000DF93CF93CDB7DEB728970FB6F894DEBF31
:102510000FBECDBF8A836B834C8319828B81883039
:1025200008F0F4C08C81882309F077C08A81282FB5
:1025300030E038872F838F8198858130910559F15C
:102540002F813885223031052CF48F8198850097B2
:1025500069F060C02F8138852230310589F18F8183
:1025600098858330910509F440C054C0AAE3B0E0D7
:10257000EAE3F0E08081482F8B81282F30E081E072
:1025800090E0022E02C0880F991F0A94E2F780950E
:1025900084238C93BDC0A7E3B0E0E7E3F0E0808143
:1025A000482F8B81282F30E081E090E0022E02C07E
:1025B000880F991F0A94E2F7809584238C93A8C012
:1025C000A4E3B0E0E4E3F0E08081482F8B81282F82
:1025D00030E081E090E0022E02C0880F991F0A943B
:1025E000E2F7809584238C9393C0A1E3B0E0E1E30C
:1025F000F0E08081482F8B81282F30E081E090E04F
:10260000022E02C0880F991F0A94E2F78095842356
:102610008C937EC081E089837BC08C81813009F0FE
:1026200072C08A81282F30E03E832D838D819E8168
:102630008130910549F12D813E81223031052CF404
:102640008D819E81009761F05BC02D813E8122309B
:10265000310571F18D819E8183309105E9F150C082
:10266000AAE3B0E0EAE3F0E08081482F8B81282FD5
:1026700030E081E090E0022E02C0880F991F0A949A
:10268000E2F7842B8C9344C0A7E3B0E0E7E3F0E0EB
:102690008081482F8B81282F30E081E090E0022E4E
:1026A00002C0880F991F0A94E2F7842B8C9330C0E4
:1026B000A4E3B0E0E4E3F0E08081482F8B81282F91
:1026C00030E081E090E0022E02C0880F991F0A944A
:1026D000E2F7842B8C931CC0A1E3B0E0E1E3F0E0CF
:1026E0008081482F8B81282F30E081E090E0022EFE
:1026F00002C0880F991F0A94E2F7842B8C9308C0BC
:1027000081E0898305C081E0898302C081E08983FB
:10271000898128960FB6F894DEBF0FBECDBFCF914A
:10272000DF910895DF93CF93CDB7DEB728970FB62B
:10273000F894DEBF0FBECDBF8A836B834C831982B2
:102740008B81883008F0F4C08C81882309F077C031
:102750008A81282F30E038872F838F8198858130B8
:10276000910559F12F813885223031052CF48F8164
:102770009885009769F060C02F8138852230310537
:1027800089F18F8198858330910509F440C054C048
:10279000ABE3B0E0EBE3F0E08081482F8B81282FA2
:1027A00030E081E090E0022E02C0880F991F0A9469
:1027B000E2F7809584238C93BDC0A8E3B0E0E8E302
:1027C000F0E08081482F8B81282F30E081E090E07D
:1027D000022E02C0880F991F0A94E2F78095842385
:1027E0008C93A8C0A5E3B0E0E5E3F0E08081482F3A
:1027F0008B81282F30E081E090E0022E02C0880F0C
:10280000991F0A94E2F7809584238C9393C0A2E3E6
:10281000B0E0E2E3F0E08081482F8B81282F30E0A8
:1028200081E090E0022E02C0880F991F0A94E2F71F
:10283000809584238C937EC081E089837BC08C81CA
:10284000813009F072C08A81282F30E03E832D83C9
:102850008D819E818130910549F12D813E8122300B
:1028600031052CF48D819E81009761F05BC02D8134
:102870003E812230310571F18D819E818330910539
:10288000E9F150C0ABE3B0E0EBE3F0E08081482F2A
:102890008B81282F30E081E090E0022E02C0880F6B
:1028A000991F0A94E2F7842B8C9344C0A8E3B0E00C
:1028B000E8E3F0E08081482F8B81282F30E081E031
:1028C00090E0022E02C0880F991F0A94E2F7842B31
:1028D0008C9330C0A5E3B0E0E5E3F0E08081482FC1
:1028E0008B81282F30E081E090E0022E02C0880F1B
:1028F000991F0A94E2F7842B8C931CC0A2E3B0E0EA
:10290000E2E3F0E08081482F8B81282F30E081E0E6
:1029100090E0022E02C0880F991F0A94E2F7842BE0
:102920008C9308C081E0898305C081E0898302C05F
:1029300081E08983898128960FB6F894DEBF0FBEA7
:10294000CDBFCF91DF910895DF93CF93CDB7DEB7A1
:1029500027970FB6F894DEBF0FBECDBF8A836B8377
:102960005D834C8319828B81883008F074C08A8122
:10297000282F30E03F832E834E815F814130510507
:1029800059F18E819F818230910534F42E813F81EF
:102990002115310569F05CC04E815F8142305105DF
:1029A00079F18E819F818330910509F43DC050C03B
:1029B000E9E3F0E08081282F30E08B81882F90E0E0
:1029C000A90102C0559547958A95E2F7CA01817021
:1029D000EC81FD81808341C0E6E3F0E08081282F17
:1029E00030E08B81882F90E0A90102C05595479572
:1029F0008A95E2F7CA018170EC81FD8180832DC048
:102A0000E3E3F0E08081282F30E08B81882F90E095
:102A1000A90102C0559547958A95E2F7CA018170D0
:102A2000EC81FD81808319C0E0E3F0E08081282FF4
:102A300030E08B81882F90E0A90102C05595479521
:102A40008A95E2F7CA018170EC81FD81808305C01F
:102A500081E0898302C081E08983898127960FB64E
:102A6000F894DEBF0FBECDBFCF91DF910895DF9305
:102A7000CF9300D000D00F92CDB7DEB78A836B839F
:102A800019828A818430B0F58A81282F30E03D8315
:102A90002C838C819D8181309105D1F02C813D81E9
:102AA000223031052CF48C819D81009761F01FC08C
:102AB0002C813D812230310581F08C819D818330D4
:102AC000910581F014C0EAE3F0E08B81808314C0AB
:102AD000E7E3F0E08B8180830FC0E4E3F0E08B81DB
:102AE00080830AC0E1E3F0E08B81808305C081E050
:102AF000898302C081E0898389810F900F900F90B4
:102B00000F900F90CF91DF910895DF93CF9300D076
:102B100000D00F92CDB7DEB78A836B8319828A818A
:102B20008430B0F58A81282F30E03D832C838C815E
:102B30009D8181309105D1F02C813D81223031057C
:102B40002CF48C819D81009761F01FC02C813D8108
:102B50002230310581F08C819D818330910581F097
:102B600014C0EBE3F0E08B81808314C0E8E3F0E075
:102B70008B8180830FC0E5E3F0E08B8180830AC006
:102B8000E2E3F0E08B81808305C081E0898302C0AD
:102B900081E0898389810F900F900F900F900F90A3
:102BA000CF91DF910895DF93CF9300D000D000D074
:102BB000CDB7DEB78A837C836B8319828A81282F05
:102BC00030E03E832D838D819E8181309105E1F03F
:102BD0002D813E81223031052CF48D819E8100971C
:102BE00061F027C02D813E8122303105A1F08D8119
:102BF0009E8183309105B1F01CC0E9E3F0E0808153
:102C0000EB81FC81808317C0E6E3F0E08081EB81FB
:102C1000FC81808310C0E3E3F0E08081EB81FC81E4
:102C2000808309C0E0E3F0E08081EB81FC81808358
:102C300002C081E08983898126960FB6F894DEBFB1
:102C40000FBECDBFCF91DF910895DF93CF9300D01A
:102C500000D00F92CDB7DEB78A836B8319828B8148
:102C6000883008F072C08A81282F30E03D832C83A1
:102C70008C819D818130910549F12C813D812230EB
:102C800031052CF48C819D81009761F05BC02C8113
:102C90003D812230310571F18C819D818330910518
:102CA000E9F150C0ABE3B0E0EBE3F0E08081482F06
:102CB0008B81282F30E081E090E0022E02C0880F47
:102CC000991F0A94E2F7842B8C9341C0A8E3B0E0EB
:102CD000E8E3F0E08081482F8B81282F30E081E00D
:102CE00090E0022E02C0880F991F0A94E2F7842B0D
:102CF0008C932DC0A5E3B0E0E5E3F0E08081482FA0
:102D00008B81282F30E081E090E0022E02C0880FF6
:102D1000991F0A94E2F7842B8C9319C0A2E3B0E0C8
:102D2000E2E3F0E08081482F8B81282F30E081E0C2
:102D300090E0022E02C0880F991F0A94E2F7842BBC
:102D40008C9305C081E0898302C081E089838981F9
:102D50000F900F900F900F900F90CF91DF910895EB
:102D6000DF93CF930F92CDB7DEB7198219820CC0D3
:102D700082E0698140E00E94801282E069810E94C5
:102D8000251689818F5F89838981843088F3198230
:102D900013C08981982F9C5F82E0692F41E00E94D7
:102DA00080128981982F9C5F82E0692F41E00E9408
:102DB000921389818F5F89838981843050F30F90CA
:102DC000CF91DF910895DF93CF9300D00F92CDB7CD
:102DD000DEB71A823CC08A81982F9C5F82E0692FFF
:102DE00040E00E949213198224C09E012D5F3F4F44
:102DF00082E06981A9010E94A4148B818823B1F427
:102E00008A81282F30E08981882F90E0880F991FD0
:102E1000880F991F820F931FFC01E859FE4F808194
:102E20000F900F900F90CF91DF91089589818F5F60
:102E3000898389818430C8F28A81982F9C5F82E0DF
:102E4000692F41E00E9492138A818F5F8A838A8171
:102E5000843008F2BECFDF93CF93CDB7DEB76D9746
:102E60000FB6F894DEBF0FBECDBF8D8F80E06D8DA5
:102E70000E94851580E090E0A0E2B1E4898F9A8FEE
:102E8000AB8FBC8F698D7A8D8B8D9C8D20E030E06F
:102E90004AE753E40E94FC0EDC01CB018D8B9E8B34
:102EA000AF8BB88F6D897E898F89988D20E030E057
:102EB00040E85FE30E94561088232CF481E090E004
:102EC0009C8B8B8B3FC06D897E898F89988D20E08C
:102ED0003FEF4FE757E40E94F60F18164CF5698D47
:102EE0007A8D8B8D9C8D20E030E040E251E40E9491
:102EF000FC0EDC01CB01BC01CD010E944100DC01D4
:102F0000CB019C8B8B8B0FC089E190E09A8B898BD6
:102F100089899A890197F1F79A8B898B8B899C898A
:102F200001979C8B8B8B8B899C89009769F714C0C8
:102F30006D897E898F89988D0E944100DC01CB01CB
:102F40009C8B8B8B8B899C89988B8F878F8598899D
:102F50000197F1F7988B8F8781E060E041E00E9454
:102F6000921381E061E040E00E94921380E090E0E3
:102F7000A0E2B1E48B879C87AD87BE876B857C859B
:102F80008D859E8520E030E04AE753E40E94FC0EE8
:102F9000DC01CB018F839887A987BA876F817885F9
:102FA00089859A8520E030E040E85FE30E94561072
:102FB00088232CF481E090E09E838D833FC06F8155
:102FC000788589859A8520E03FEF4FE757E40E9496
:102FD000F60F18164CF56B857C858D859E8520E057
:102FE00030E040E251E40E94FC0EDC01CB01BC0168
:102FF000CD010E944100DC01CB019E838D830FC077
:1030000089E190E09C838B838B819C810197F1F710
:103010009C838B838D819E8101979E838D838D817F
:103020009E81009769F714C06F81788589859A859C
:103030000E944100DC01CB019E838D838D819E81A6
:103040009A83898389819A810197F1F79A83898389
:1030500081E062E041E00E94921381E062E040E0A2
:103060000E9492136D960FB6F894DEBF0FBECDBFCF
:10307000CF91DF9108950F931F93DF93CF93CDB737
:10308000DEB7C754D0400FB6F894DEBF0FBECDBF39
:10309000FE01E95BFF4F8083FE01E95BFF4F80E0AB
:1030A00060810E948515FE01ED5BFF4F80E090E09E
:1030B000A0E8BFE380839183A283B3838E01015C88
:1030C0001F4FFE01ED5BFF4F608171818281938113
:1030D00020E030E04AE753E40E94FC0EDC01CB0123
:1030E000F80180839183A283B383FE01FF96608100
:1030F00071818281938120E030E040E85FE30E94AB
:10310000561088232CF481E090E09EAF8DAF46C02E
:10311000FE01FF96608171818281938120E03FEF03
:103120004FE757E40E94F60F181664F5FE01ED5BB9
:10313000FF4F608171818281938120E030E040E225
:1031400051E40E94FC0EDC01CB01BC01CD010E94C8
:103150004100DC01CB019EAF8DAF0FC089E190E053
:103160009CAF8BAF8BAD9CAD0197F1F79CAF8BAF54
:103170008DAD9EAD01979EAF8DAF8DAD9EAD00978D
:1031800069F716C0FE01FF9660817181828193818B
:103190000E944100DC01CB019EAF8DAF8DAD9EAD95
:1031A0009AAF89AF89AD9AAD0197F1F79AAF89AF20
:1031B00081E060E040E00E94921380E090E0A0E8AF
:1031C000BFE38DAB9EABAFABB8AF6DA97EA98FA9A6
:1031D00098AD20E030E04AE753E40E94FC0EDC01A9
:1031E000CB0189AB9AABABABBCAB69A97AA98BA974
:1031F0009CA920E030E040E85FE30E94561088235D
:103200002CF481E090E098AB8FA73FC069A97AA920
:103210008BA99CA920E03FEF4FE757E40E94F60FEF
:1032200018164CF56DA97EA98FA998AD20E030E065
:1032300040E251E40E94FC0EDC01CB01BC01CD0157
:103240000E944100DC01CB0198AB8FA70FC089E140
:1032500090E09EA78DA78DA59EA50197F1F79EA74B
:103260008DA78FA598A9019798AB8FA78FA598A92F
:10327000009769F714C069A97AA98BA99CA90E9433
:103280004100DC01CB0198AB8FA78FA598A99CA723
:103290008BA78BA59CA50197F1F79CA78BA781E035
:1032A00061E040E00E94921380E090E0A0E8BFE37C
:1032B0008FA398A7A9A7BAA76FA178A589A59AA552
:1032C00020E030E04AE753E40E94FC0EDC01CB0131
:1032D0008BA39CA3ADA3BEA36BA17CA18DA19EA13A
:1032E00020E030E040E85FE30E94561088232CF491
:1032F00081E090E09AA389A33FC06BA17CA18DA13E
:103300009EA120E03FEF4FE757E40E94F60F18160A
:103310004CF56FA178A589A59AA520E030E040E2A0
:1033200051E40E94FC0EDC01CB01BC01CD010E94E6
:103330004100DC01CB019AA389A30FC089E190E091
:1033400098A38F8F8F8D98A10197F1F798A38F8FF6
:1033500089A19AA101979AA389A389A19AA100970B
:1033600069F714C06BA17CA18DA19EA10E944100B0
:10337000DC01CB019AA389A389A19AA19E8F8D8F8D
:103380008D8D9E8D0197F1F79E8F8D8F81E062E08C
:1033900041E00E94921380E090E0A0E8BFE3898FB3
:1033A0009A8FAB8FBC8F698D7A8D8B8D9C8D20E031
:1033B00030E04AE753E40E94FC0EDC01CB018D8B28
:1033C0009E8BAF8BB88F6D897E898F89988D20E019
:1033D00030E040E85FE30E94561088232CF481E03F
:1033E00090E09C8B8B8B3FC06D897E898F89988DF7
:1033F00020E03FEF4FE757E40E94F60F18164CF518
:10340000698D7A8D8B8D9C8D20E030E040E251E417
:103410000E94FC0EDC01CB01BC01CD010E944100E9
:10342000DC01CB019C8B8B8B0FC089E190E09A8BE8
:10343000898B89899A890197F1F79A8B898B8B8976
:103440009C8901979C8B8B8B8B899C89009769F752
:1034500014C06D897E898F89988D0E944100DC019E
:10346000CB019C8B8B8B8B899C89988B8F878F85CD
:1034700098890197F1F7988B8F8781E062E040E0AF
:103480000E94921380E090E0A0E8BFE38B879C87C6
:10349000AD87BE876B857C858D859E8520E030E07D
:1034A0004AE753E40E94FC0EDC01CB018F8398872E
:1034B000A987BA876F81788589859A8520E030E071
:1034C00040E85FE30E94561088232CF481E090E0EE
:1034D0009E838D833FC06F81788589859A8520E0A2
:1034E0003FEF4FE757E40E94F60F18164CF56B8537
:1034F0007C858D859E8520E030E040E251E40E948D
:10350000FC0EDC01CB01BC01CD010E944100DC01BD
:10351000CB019E838D830FC089E190E09C838B83D8
:103520008B819C810197F1F79C838B838D819E8198
:1035300001979E838D838D819E81009769F714C0CA
:103540006F81788589859A850E944100DC01CB01D5
:103550009E838D838D819E819A83898389819A81BF
:103560000197F1F79A838983C95BDF4F0FB6F8940F
:10357000DEBF0FBECDBFCF91DF911F910F91089598
:10358000DF93CF93CDB7DEB7AA970FB6F894DEBF1F
:103590000FBECDBF80E06FEF0E94371581E060E085
:1035A00041E00E94801281E061E041E00E948012CF
:1035B00081E062E041E00E94801280E090E0A0E2C1
:1035C000B2E48FA398A7A9A7BAA76FA178A589A5E8
:1035D0009AA520E030E04AE753E40E94FC0EDC01AB
:1035E000CB018BA39CA3ADA3BEA36BA17CA18DA19A
:1035F0009EA120E030E040E85FE30E94561088235F
:103600002CF481E090E09AA389A33FC06BA17CA138
:103610008DA19EA120E03FEF4FE757E40E94F60FF7
:1036200018164CF56FA178A589A59AA520E030E081
:1036300040E251E40E94FC0EDC01CB01BC01CD0153
:103640000E944100DC01CB019AA389A30FC089E14C
:1036500090E098A38F8F8F8D98A10197F1F798A391
:103660008F8F89A19AA101979AA389A389A19AA171
:10367000009769F714C06BA17CA18DA19EA10E9447
:103680004100DC01CB019AA389A389A19AA19E8F55
:103690008D8F8D8D9E8D0197F1F79E8F8D8F88E395
:1036A0000E943B1880E090E0A0E8BFE3898F9A8FEA
:1036B000AB8FBC8F698D7A8D8B8D9C8D20E030E037
:1036C0004AE753E40E94FC0EDC01CB018D8B9E8BFC
:1036D000AF8BB88F6D897E898F89988D20E030E01F
:1036E00040E85FE30E94561088232CF481E090E0CC
:1036F0009C8B8B8B3FC06D897E898F89988D20E054
:103700003FEF4FE757E40E94F60F18164CF5698D0E
:103710007A8D8B8D9C8D20E030E040E251E40E9458
:10372000FC0EDC01CB01BC01CD010E944100DC019B
:10373000CB019C8B8B8B0FC089E190E09A8B898B9E
:1037400089899A890197F1F79A8B898B8B899C8952
:1037500001979C8B8B8B8B899C89009769F714C090
:103760006D897E898F89988D0E944100DC01CB0193
:103770009C8B8B8B8B899C89988B8F878F85988965
:103780000197F1F7988B8F878FE00E943B1880E0BC
:1037900090E0A0E8BFE38B879C87AD87BE876B85F1
:1037A0007C858D859E8520E030E04AE753E40E94C9
:1037B000FC0EDC01CB018F839887A987BA876F81C4
:1037C000788589859A8520E030E040E85FE30E94B3
:1037D000561088232CF481E090E09E838D833FC0B7
:1037E0006F81788589859A8520E03FEF4FE757E420
:1037F0000E94F60F18164CF56B857C858D859E858D
:1038000020E030E040E251E40E94FC0EDC01CB01FC
:10381000BC01CD010E944100DC01CB019E838D8360
:103820000FC089E190E09C838B838B819C81019701
:10383000F1F79C838B838D819E8101979E838D837D
:103840008D819E81009769F714C06F817885898585
:103850009A850E944100DC01CB019E838D838D817E
:103860009E819A83898389819A810197F1F79A834E
:10387000898381E00E943B18AA960FB6F894DEBFB8
:103880000FBECDBFCF91DF910895DF93CF9300D0CE
:10389000CDB7DEB79A8389830BC0E981FA81208195
:1038A00089819A8101969A838983822F0E942B179E
:1038B000E981FA818081882381F70F900F90CF9161
:1038C000DF9108958F929F92AF92BF92CF92DF9235
:1038D000EF92FF920F931F93DF93CF93CDB7DEB795
:1038E000C65DD0400FB6F894DEBF0FBECDBFFE015F
:1038F000EE55FF4F20833183428353836483758366
:1039000086839783198280EAFE013296DF01282F91
:103910001D922A95E9F7FE01EE55FF4F80819181B6
:10392000892B9281892B9381892B9481892B958175
:10393000892B9681892B9781892B882309F0C4C311
:1039400080E30E942B17C0C389818F5F898389819F
:10395000A82FB0E0CE54DF4FB983A883C25BD0401C
:10396000FE01EE55FF4FA080B180C280D380E4807D
:10397000F580068117812A2D3B2D4C2D5D2D6E2D56
:103980007F2D802F912F0F2EFAE0AF2EF02DBB242C
:10399000CC24DD24EE24FF2400E010E00E94E206A7
:1039A000A22EB32EC42ED52EE62EF72E082F192FB9
:1039B000C655DF4FA882CA5AD040C555DF4FB882DE
:1039C000CB5AD040C455DF4FC882CC5AD040C355E3
:1039D000DF4FD882CD5AD040C255DF4FE882CE5A51
:1039E000D040C155DF4FF882CF5AD040C055DF4F8D
:1039F0000883C05BD040CF54DF4F1883C15BD040F9
:103A0000B0E3CC54DF4FB883C45BD040CB54DF4F1E
:103A10001882C55BD040CA54DF4F1882C65BD040C5
:103A2000C954DF4F1882C75BD040C854DF4F18829B
:103A3000C85BD040C754DF4F1882C95BD040C65422
:103A4000DF4F1882CA5BD040C554DF4F1882CB5B72
:103A5000D040C655DF4FE881CA5AD040CC54DF4F22
:103A6000F881C45BD040EF0FC454DF4FE883CC5BD8
:103A7000D04021E0CC53DF4F2883C45CD040C454F5
:103A8000DF4F3881CC5BD040C655DF4F8881CA5AA2
:103A9000D040381728F0CC53DF4F1882C45CD04098
:103AA000C555DF4F9881CB5AD040CB54DF4FA8810A
:103AB000C55BD0409A0FC354DF4F9883CD5BD04095
:103AC000B1E0CB53DF4FB883C55CD040C354DF4F68
:103AD000E881CD5BD040C555DF4FF881CB5AD0404F
:103AE000EF1728F0CB53DF4F1882C55CD040CC5382
:103AF000DF4F2881C45CD040C354DF4F3881CD5B99
:103B0000D040230FCA53DF4F2883C65CD04081E0EA
:103B1000C953DF4F8883C75CD040CA53DF4F9881B9
:103B2000C65CD040C354DF4FA881CD5BD0409A170C
:103B300028F0C953DF4F1882C75CD040CB53DF4F0A
:103B4000B881C55CD040C953DF4FE881C75CD04025
:103B5000BE2BCB53DF4FB883C55CD040CA53DF4F79
:103B6000F881C65CD040C354DF4FF883CD5BD040B2
:103B7000C455DF4F2881CC5AD040CA54DF4F38811A
:103B8000C65BD040230FC254DF4F2883CE5BD040AA
:103B900081E0C853DF4F8883C85CD040C254DF4FF8
:103BA0009881CE5BD040C455DF4FA881CC5AD0401D
:103BB0009A1728F0C853DF4F1882C85CD040CB5307
:103BC000DF4FB881C55CD040C254DF4FE881CE5B87
:103BD000D040BE0FC753DF4FB883C95CD040F1E07F
:103BE000C653DF4FF883CA5CD040C753DF4F2881EC
:103BF000C95CD040C254DF4F3881CE5BD040231720
:103C000028F0C653DF4F1882CA5CD040C853DF4F3C
:103C10008881C85CD040C653DF4F9881CA5CD040D1
:103C2000892BC853DF4F8883C85CD040C753DF4F10
:103C3000A881C95CD040C254DF4FA883CE5BD0407E
:103C4000C355DF4FB881CD5AD040C954DF4FE8810A
:103C5000C75BD040BE0FC154DF4FB883CF5BD040AD
:103C6000F1E0C553DF4FF883CB5CD040C154DF4F48
:103C70002881CF5BD040C355DF4F3881CD5AD0402B
:103C8000231728F0C553DF4F1882CB5CD040C853B0
:103C9000DF4F8881C85CD040C154DF4F9881CF5B33
:103CA000D040890FC453DF4F8883CC5CD040A1E063
:103CB000C353DF4FA883CD5CD040C453DF4FB881DE
:103CC000CC5CD040C154DF4FE881CF5BD040BE1701
:103CD00028F0C353DF4F1882CD5CD040C553DF4F6F
:103CE000F881CB5CD040C353DF4F2881CD5CD040FE
:103CF000F22BC553DF4FF883CB5CD040C453DF4F6A
:103D00003881CC5CD040C154DF4F3883CF5BD0408A
:103D1000C255DF4F8881CE5AD040C854DF4F9881BA
:103D2000C85BD040890FC054DF4F8883C05CD0404F
:103D3000A1E0C253DF4FA883CE5CD040C054DF4F18
:103D4000B881C05CD040C255DF4FE881CE5AD04028
:103D5000BE1728F0C253DF4F1882CE5CD040C55347
:103D6000DF4FF881CB5CD040C054DF4F2881C05C6E
:103D7000D040F20FC153DF4FF883CF5CD04031E029
:103D8000C053DF4F3883C05DD040C153DF4F8881BF
:103D9000CF5CD040C054DF4F9881C05CD0408917C1
:103DA00028F0C053DF4F1882C05DD040C253DF4FB0
:103DB000A881CE5CD040C053DF4FB881C05DD040F9
:103DC000AB2BC253DF4FA883CE5CD040C153DF4F33
:103DD000E881CF5CD040C054DF4FE883C05CD04066
:103DE000C155DF4FF881CF5AD040C754DF4F2881EB
:103DF000C95BD040F20FCF53DF4FF883C15CD04096
:103E000031E0CF52DF4F3883C15DD040CF53DF4F19
:103E10008881C15CD040C155DF4F9881CF5AD040D6
:103E2000891728F0CF52DF4F1882C15DD040C253AE
:103E3000DF4FA881CE5CD040CF53DF4FB881C15C4B
:103E4000D040AB0FCE52DF4FA883C25DD040E1E03F
:103E5000CD52DF4FE883C35DD040CE52DF4FF881B3
:103E6000C25DD040CF53DF4F2881C15CD040F217F4
:103E700028F0CD52DF4F1882C35DD040CF52DF4FC4
:103E80003881C15DD040CD52DF4F8881C35DD040C5
:103E9000382BCF52DF4F3883C15DD040CE52DF4F39
:103EA0009881C25DD040CF53DF4F9883C15CD04032
:103EB000C055DF4FA881C05BD040C654DF4FB881EA
:103EC000CA5BD040AB0FCE53DF4FA883C25CD0405B
:103ED000E1E0CC52DF4FE883C45DD040CE53DF4FEA
:103EE000F881C25CD040C055DF4F2881C05BD04014
:103EF000F21728F0CC52DF4F1882C45DD040CF5269
:103F0000DF4F3881C15DD040CE53DF4F8881C25C26
:103F1000D040380FCB52DF4F3883C55DD04091E0A1
:103F2000CA52DF4F9883C65DD040CB52DF4FA88185
:103F3000C55DD040CE53DF4FB881C25CD040AB17D7
:103F400028F0CA52DF4F1882C65DD040CC52DF4FF6
:103F5000E881C45DD040CA52DF4FF881C65DD040D1
:103F6000EF2BCC52DF4FE883C45DD040CB52DF4F04
:103F70002881C55DD040CE53DF4F2883C25CD0403E
:103F8000CF54DF4F3881C15BD040C554DF4F8881AB
:103F9000CB5BD040380FCD53DF4F3883C35CD0406C
:103FA000CC52DF4F8881C45DD040CD53DF4F988124
:103FB000C35CD040890FCD53DF4F8883C35CD040B2
:103FC000C454DF4F2881CC5BD040C354DF4F3881CD
:103FD000CD5BD040C254DF4F4881CE5BD040C1544E
:103FE000DF4F5881CF5BD040C054DF4F6881C05C49
:103FF000D040CF53DF4F7881C15CD040CE53DF4FEC
:104000008881C25CD040CD53DF4F9881C35CD040E3
:10401000CE54DF4FA881B981C25BD040AA0FBB1F2D
:10402000AA0FBB1FAA0FBB1FFE013196EA0FFB1F91
:1040300031962083318342835383648375838683DF
:1040400097830F2EF2EA8F2E9924F02D8C0E9D1E51
:10405000FE01EE55FF4FA080B180C280D380E48086
:10406000F580068117812A2D3B2D4C2D5D2D6E2D5F
:104070007F2D802F912F0F2EFAE0AF2EF02DBB2435
:10408000CC24DD24EE24FF2400E010E00E946D002B
:10409000A22EB32EC42ED52EE62EF72E082F192FC2
:1040A000D401AC92F401B182D4011296CC92F40105
:1040B000D382D4011496EC92F401F582D4011696C1
:1040C0000C931697F4011783FE01EE55FF4F808184
:1040D0009181892B9281892B9381892B9481892BC2
:1040E0009581892B9681892B9781892B882309F0CB
:1040F0002BCC1EC08981882F90E09C01220F331F9A
:10410000220F331F220F331FCE010196820F931F00
:10411000FC01319620813181428153816481758116
:1041200086819781822F0E942B17898181508983F4
:1041300089818823F9F6CA52DF4F0FB6F894DEBFA3
:104140000FBECDBFCF91DF911F910F91FF90EF90E8
:10415000DF90CF90BF90AF909F908F900895DF93A6
:10416000CF9300D000D00F92CDB7DEB78A836B8398
:1041700019828B81282F30E03D832C838C819D8197
:1041800081309105C1F02C813D81223031052CF424
:104190008C819D81009761F019C02C813D81223076
:1041A000310569F08C819D818330910561F00EC0ED
:1041B0008A8189830BC08A81805C898307C08A8158
:1041C000805F898303C08A81805B8983898180685D
:1041D0000E943B180F900F900F900F900F90CF916F
:1041E000DF910895AF92BF92CF92DF92EF92FF924C
:1041F0000F931F93DF93CF93CDB7DEB7A4970FB67E
:10420000F894DEBF0FBECDBF1B8E1C8E1D8E1E8E82
:104210001F8A188E198E1A8E1B8A1C8A1D8A1E8A66
:104220001A8A198A188A1F860E94C01A0E94B0161C
:104230000E94E3168A8B8A890E942B178A89282F6D
:1042400030E03CA32BA38BA19CA18F32910509F4F4
:1042500011C12BA13CA1203331059CF48BA19CA161
:104260008A3291050CF41DC12BA13CA12C323105E1
:104270000CF400C18BA19CA18D32910509F4FAC008
:1042800010C12BA13CA12D33310539F08BA19CA18C
:104290008837910509F4F3C004C18F85882309F09C
:1042A00068C08889282F30E03AA329A389A19AA160
:1042B0008B32910539F129A13AA12C32310534F420
:1042C00089A19AA18A32910571F1BAC029A13AA1B6
:1042D0002D32310531F089A19AA18F329105B1F1CA
:1042E000AFC08B8D9C8DAD8DBE8D2F89388D498D46
:1042F0005A8D821B930BA40BB50B8B8B9C8BAD8BB8
:10430000BE8B9EC08B8D9C8DAD8DBE8D2F89388DC3
:10431000498D5A8D820F931FA41FB51F8B8B9C8BC9
:10432000AD8BBE8B8DC08B8D9C8DAD8DBE8D2F8941
:10433000388D498D5A8DBC01CD010E940423DC01CA
:10434000CB018B8B9C8BAD8BBE8B7AC08B8D9C8D68
:10435000AD8DBE8D2F89388D498D5A8DBC01CD0113
:104360000E942323DA01C9018B8B9C8BAD8BBE8B02
:1043700067C08889282F30E038A32F8F8F8D98A1B0
:104380008B32910539F12F8D38A12C32310534F45F
:104390008F8D98A18A32910571F152C02F8D38A16D
:1043A0002D32310531F08F8D98A18F329105B1F109
:1043B00047C08B899C89AD89BE892F89388D498DED
:1043C0005A8D821B930BA40BB50B8B8B9C8BAD8BE7
:1043D000BE8B36C08B899C89AD89BE892F89388D6B
:1043E000498D5A8D820F931FA41FB51F8B8B9C8BF9
:1043F000AD8BBE8B25C08B899C89AD89BE892F89E9
:10440000388D498D5A8DBC01CD010E940423DC01F9
:10441000CB018B8B9C8BAD8BBE8B12C08B899C8907
:10442000AD89BE892F89388D498D5A8DBC01CD014A
:104430000E942323DA01C9018B8B9C8BAD8BBE8B31
:104440008B899C89AD89BE895C016D01EE24FF24B6
:1044500087012A2D3B2D4C2D5D2D6E2D7F2D802F1C
:10446000912F0E94621C81E08F871F8A188E198EFF
:104470001A8E57C081E0898B8A89888B52C0198A2D
:104480001F861B8A1C8A1D8A1E8A1B8E1C8E1D8EEF
:104490001E8E1F8A188E198E1A8E81E00E943B187C
:1044A00040C089898823F9F48B8D9C8DAD8DBE8D9C
:1044B0002AE030E040E050E0BC01CD010E9404233E
:1044C0009B01AC018A89882F90E0C097AA2797FDAD
:1044D000A095BA2F820F931FA41FB51F8B8F9C8F9F
:1044E000AD8FBE8F1EC08F89988DA98DBA8D2AE0A1
:1044F00030E040E050E0BC01CD010E9404239B016C
:10450000AC018A89882F90E0C097AA2797FDA095D3
:10451000BA2F820F931FA41FB51F8F8B988FA98F5F
:10452000BA8F80E090E0AAE7B5E48B879C87AD87DF
:10453000BE876B857C858D859E8520E030E04AE7CF
:1045400053E40E94FC0EDC01CB018F839887A9877E
:10455000BA876F81788589859A8520E030E040E8C8
:104560005FE30E94561088232CF481E090E09E8344
:104570008D833FC06F81788589859A8520E03FEFE4
:104580004FE757E40E94F60F18164CF56B857C85B3
:104590008D859E8520E030E040E251E40E94FC0ED3
:1045A000DC01CB01BC01CD010E944100DC01CB014B
:1045B0009E838D830FC089E190E09C838B838B81E8
:1045C0009C810197F1F79C838B838D819E8101975C
:1045D0009E838D838D819E81009769F729CE6F819F
:1045E000788589859A850E944100DC01CB019E83F4
:1045F0008D838D819E819A83898389819A81019798
:10460000F1F79A83898314CE629FD001739FF001E2
:10461000829FE00DF11D649FE00DF11D929FF00D52
:10462000839FF00D749FF00D659FF00D9927729F89
:10463000B00DE11DF91F639FB00DE11DF91FBD0114
:10464000CF0111240895A1E21A2EAA1BBB1BFD0164
:104650000DC0AA1FBB1FEE1FFF1FA217B307E40761
:10466000F50720F0A21BB30BE40BF50B661F771FB9
:10467000881F991F1A9469F7609570958095909599
:104680009B01AC01BD01CF0108952F923F924F9243
:104690005F926F927F928F929F92AF92BF92CF92D2
:1046A000DF92EF92FF920F931F93CF93DF93CDB7DB
:1046B000DEB7CA1BDB0B0FB6F894DEBF0FBECDBF53
:1046C00009942A88398848885F846E847D848C8424
:1046D0009B84AA84B984C884DF80EE80FD800C812D
:1046E0001B81AA81B981CE0FD11D0FB6F894DEBF10
:0C46F0000FBECDBFED010895F894FFCF80
:1046FC00000000000000000000010202030303039D
:10470C000404040404040404050505050505050555
:10471C000505050505050505060606060606060635
:10472C00060606060606060606060606060606061D
:10473C000606060606060606070707070707070705
:10474C0007070707070707070707070707070707ED
:10475C0007070707070707070707070707070707DD
:10476C0007070707070707070707070707070707CD
:10477C0007070707070707070808080808080808B5
:10478C00080808080808080808080808080808089D
:10479C00080808080808080808080808080808088D
:1047AC00080808080808080808080808080808087D
:1047BC00080808080808080808080808080808086D
:1047CC00080808080808080808080808080808085D
:1047DC00080808080808080808080808080808084D
:1047EC00080808080808080808080808080808083D
:1047FC0008080808080808083738392F3435362ACD
:08480C003132332D78303D2BD1
:00000001FF
